{
  "address": "0xF94442483BbA3d3B7d6D8cd2Ca07581368d36731",
  "abi": [
    {
      "inputs": [
        {
          "internalType": "address payable",
          "name": "_uniV3Pool",
          "type": "address"
        },
        {
          "internalType": "address payable",
          "name": "_weth",
          "type": "address"
        }
      ],
      "stateMutability": "nonpayable",
      "type": "constructor"
    },
    {
      "inputs": [],
      "name": "InvalidShortString",
      "type": "error"
    },
    {
      "inputs": [
        {
          "internalType": "string",
          "name": "str",
          "type": "string"
        }
      ],
      "name": "StringTooLong",
      "type": "error"
    },
    {
      "anonymous": false,
      "inputs": [],
      "name": "EIP712DomainChanged",
      "type": "event"
    },
    {
      "anonymous": false,
      "inputs": [
        {
          "indexed": true,
          "internalType": "address",
          "name": "previousOwner",
          "type": "address"
        },
        {
          "indexed": true,
          "internalType": "address",
          "name": "newOwner",
          "type": "address"
        }
      ],
      "name": "OwnershipTransferred",
      "type": "event"
    },
    {
      "anonymous": false,
      "inputs": [
        {
          "indexed": false,
          "internalType": "address",
          "name": "account",
          "type": "address"
        }
      ],
      "name": "Paused",
      "type": "event"
    },
    {
      "anonymous": false,
      "inputs": [
        {
          "indexed": true,
          "internalType": "address",
          "name": "token",
          "type": "address"
        },
        {
          "indexed": true,
          "internalType": "address",
          "name": "from",
          "type": "address"
        },
        {
          "indexed": true,
          "internalType": "address",
          "name": "to",
          "type": "address"
        },
        {
          "indexed": false,
          "internalType": "uint256",
          "name": "amount",
          "type": "uint256"
        }
      ],
      "name": "Payment",
      "type": "event"
    },
    {
      "anonymous": false,
      "inputs": [
        {
          "indexed": false,
          "internalType": "address",
          "name": "account",
          "type": "address"
        }
      ],
      "name": "Unpaused",
      "type": "event"
    },
    {
      "inputs": [],
      "name": "PAY_TYPEHASH",
      "outputs": [
        {
          "internalType": "bytes32",
          "name": "",
          "type": "bytes32"
        }
      ],
      "stateMutability": "view",
      "type": "function"
    },
    {
      "inputs": [],
      "name": "eip712Domain",
      "outputs": [
        {
          "internalType": "bytes1",
          "name": "fields",
          "type": "bytes1"
        },
        {
          "internalType": "string",
          "name": "name",
          "type": "string"
        },
        {
          "internalType": "string",
          "name": "version",
          "type": "string"
        },
        {
          "internalType": "uint256",
          "name": "chainId",
          "type": "uint256"
        },
        {
          "internalType": "address",
          "name": "verifyingContract",
          "type": "address"
        },
        {
          "internalType": "bytes32",
          "name": "salt",
          "type": "bytes32"
        },
        {
          "internalType": "uint256[]",
          "name": "extensions",
          "type": "uint256[]"
        }
      ],
      "stateMutability": "view",
      "type": "function"
    },
    {
      "inputs": [],
      "name": "owner",
      "outputs": [
        {
          "internalType": "address",
          "name": "",
          "type": "address"
        }
      ],
      "stateMutability": "view",
      "type": "function"
    },
    {
      "inputs": [],
      "name": "pause",
      "outputs": [],
      "stateMutability": "nonpayable",
      "type": "function"
    },
    {
      "inputs": [],
      "name": "paused",
      "outputs": [
        {
          "internalType": "bool",
          "name": "",
          "type": "bool"
        }
      ],
      "stateMutability": "view",
      "type": "function"
    },
    {
      "inputs": [
        {
          "components": [
            {
              "internalType": "address",
              "name": "token",
              "type": "address"
            },
            {
              "internalType": "address",
              "name": "from",
              "type": "address"
            },
            {
              "internalType": "address",
              "name": "to",
              "type": "address"
            },
            {
              "internalType": "uint256",
              "name": "amount",
              "type": "uint256"
            },
            {
              "components": [
                {
                  "internalType": "uint256",
                  "name": "deadline",
                  "type": "uint256"
                },
                {
                  "components": [
                    {
                      "internalType": "uint8",
                      "name": "v",
                      "type": "uint8"
                    },
                    {
                      "internalType": "bytes32",
                      "name": "r",
                      "type": "bytes32"
                    },
                    {
                      "internalType": "bytes32",
                      "name": "s",
                      "type": "bytes32"
                    }
                  ],
                  "internalType": "struct PaymentSettlement.Signature",
                  "name": "signature",
                  "type": "tuple"
                }
              ],
              "internalType": "struct PaymentSettlement.PermitData",
              "name": "permitData",
              "type": "tuple"
            }
          ],
          "internalType": "struct PaymentSettlement.PaymentData",
          "name": "_paymentData",
          "type": "tuple"
        },
        {
          "components": [
            {
              "internalType": "uint8",
              "name": "v",
              "type": "uint8"
            },
            {
              "internalType": "bytes32",
              "name": "r",
              "type": "bytes32"
            },
            {
              "internalType": "bytes32",
              "name": "s",
              "type": "bytes32"
            }
          ],
          "internalType": "struct PaymentSettlement.Signature",
          "name": "_signature",
          "type": "tuple"
        }
      ],
      "name": "pay",
      "outputs": [],
      "stateMutability": "nonpayable",
      "type": "function"
    },
    {
      "inputs": [
        {
          "components": [
            {
              "internalType": "address",
              "name": "token",
              "type": "address"
            },
            {
              "internalType": "address",
              "name": "from",
              "type": "address"
            },
            {
              "internalType": "address",
              "name": "to",
              "type": "address"
            },
            {
              "internalType": "uint256",
              "name": "amount",
              "type": "uint256"
            },
            {
              "components": [
                {
                  "internalType": "uint256",
                  "name": "deadline",
                  "type": "uint256"
                },
                {
                  "components": [
                    {
                      "internalType": "uint8",
                      "name": "v",
                      "type": "uint8"
                    },
                    {
                      "internalType": "bytes32",
                      "name": "r",
                      "type": "bytes32"
                    },
                    {
                      "internalType": "bytes32",
                      "name": "s",
                      "type": "bytes32"
                    }
                  ],
                  "internalType": "struct PaymentSettlement.Signature",
                  "name": "signature",
                  "type": "tuple"
                }
              ],
              "internalType": "struct PaymentSettlement.PermitData",
              "name": "permitData",
              "type": "tuple"
            }
          ],
          "internalType": "struct PaymentSettlement.PaymentData",
          "name": "_paymentData",
          "type": "tuple"
        },
        {
          "components": [
            {
              "internalType": "uint8",
              "name": "v",
              "type": "uint8"
            },
            {
              "internalType": "bytes32",
              "name": "r",
              "type": "bytes32"
            },
            {
              "internalType": "bytes32",
              "name": "s",
              "type": "bytes32"
            }
          ],
          "internalType": "struct PaymentSettlement.Signature",
          "name": "_signature",
          "type": "tuple"
        },
        {
          "internalType": "address",
          "name": "_feeToken",
          "type": "address"
        },
        {
          "internalType": "uint256",
          "name": "_fee",
          "type": "uint256"
        }
      ],
      "name": "payTest",
      "outputs": [],
      "stateMutability": "nonpayable",
      "type": "function"
    },
    {
      "inputs": [],
      "name": "renounceOwnership",
      "outputs": [],
      "stateMutability": "nonpayable",
      "type": "function"
    },
    {
      "inputs": [
        {
          "internalType": "contract IUniV3Pool",
          "name": "_newPool",
          "type": "address"
        }
      ],
      "name": "setUniV3Pool",
      "outputs": [],
      "stateMutability": "nonpayable",
      "type": "function"
    },
    {
      "inputs": [
        {
          "internalType": "address",
          "name": "_newOwner",
          "type": "address"
        }
      ],
      "name": "transferOwner",
      "outputs": [],
      "stateMutability": "nonpayable",
      "type": "function"
    },
    {
      "inputs": [
        {
          "internalType": "address",
          "name": "newOwner",
          "type": "address"
        }
      ],
      "name": "transferOwnership",
      "outputs": [],
      "stateMutability": "nonpayable",
      "type": "function"
    },
    {
      "inputs": [
        {
          "internalType": "int256",
          "name": "amount0Delta",
          "type": "int256"
        },
        {
          "internalType": "int256",
          "name": "amount1Delta",
          "type": "int256"
        },
        {
          "internalType": "bytes",
          "name": "data",
          "type": "bytes"
        }
      ],
      "name": "uniswapV3SwapCallback",
      "outputs": [],
      "stateMutability": "nonpayable",
      "type": "function"
    },
    {
      "inputs": [],
      "name": "unpause",
      "outputs": [],
      "stateMutability": "nonpayable",
      "type": "function"
    },
    {
      "inputs": [
        {
          "components": [
            {
              "internalType": "address",
              "name": "token",
              "type": "address"
            },
            {
              "internalType": "address",
              "name": "from",
              "type": "address"
            },
            {
              "internalType": "address",
              "name": "to",
              "type": "address"
            },
            {
              "internalType": "uint256",
              "name": "amount",
              "type": "uint256"
            },
            {
              "components": [
                {
                  "internalType": "uint256",
                  "name": "deadline",
                  "type": "uint256"
                },
                {
                  "components": [
                    {
                      "internalType": "uint8",
                      "name": "v",
                      "type": "uint8"
                    },
                    {
                      "internalType": "bytes32",
                      "name": "r",
                      "type": "bytes32"
                    },
                    {
                      "internalType": "bytes32",
                      "name": "s",
                      "type": "bytes32"
                    }
                  ],
                  "internalType": "struct PaymentSettlement.Signature",
                  "name": "signature",
                  "type": "tuple"
                }
              ],
              "internalType": "struct PaymentSettlement.PermitData",
              "name": "permitData",
              "type": "tuple"
            }
          ],
          "internalType": "struct PaymentSettlement.PaymentData",
          "name": "_paymentData",
          "type": "tuple"
        },
        {
          "components": [
            {
              "internalType": "uint8",
              "name": "v",
              "type": "uint8"
            },
            {
              "internalType": "bytes32",
              "name": "r",
              "type": "bytes32"
            },
            {
              "internalType": "bytes32",
              "name": "s",
              "type": "bytes32"
            }
          ],
          "internalType": "struct PaymentSettlement.Signature",
          "name": "_signature",
          "type": "tuple"
        },
        {
          "internalType": "address",
          "name": "_feeToken",
          "type": "address"
        },
        {
          "internalType": "uint256",
          "name": "_fee",
          "type": "uint256"
        }
      ],
      "name": "verifyData",
      "outputs": [
        {
          "internalType": "bool",
          "name": "",
          "type": "bool"
        }
      ],
      "stateMutability": "nonpayable",
      "type": "function"
    },
    {
      "inputs": [
        {
          "components": [
            {
              "internalType": "address",
              "name": "token",
              "type": "address"
            },
            {
              "internalType": "address",
              "name": "from",
              "type": "address"
            },
            {
              "internalType": "address",
              "name": "to",
              "type": "address"
            },
            {
              "internalType": "uint256",
              "name": "amount",
              "type": "uint256"
            },
            {
              "components": [
                {
                  "internalType": "uint256",
                  "name": "deadline",
                  "type": "uint256"
                },
                {
                  "components": [
                    {
                      "internalType": "uint8",
                      "name": "v",
                      "type": "uint8"
                    },
                    {
                      "internalType": "bytes32",
                      "name": "r",
                      "type": "bytes32"
                    },
                    {
                      "internalType": "bytes32",
                      "name": "s",
                      "type": "bytes32"
                    }
                  ],
                  "internalType": "struct PaymentSettlement.Signature",
                  "name": "signature",
                  "type": "tuple"
                }
              ],
              "internalType": "struct PaymentSettlement.PermitData",
              "name": "permitData",
              "type": "tuple"
            }
          ],
          "internalType": "struct PaymentSettlement.PaymentData",
          "name": "_paymentData",
          "type": "tuple"
        },
        {
          "components": [
            {
              "internalType": "uint8",
              "name": "v",
              "type": "uint8"
            },
            {
              "internalType": "bytes32",
              "name": "r",
              "type": "bytes32"
            },
            {
              "internalType": "bytes32",
              "name": "s",
              "type": "bytes32"
            }
          ],
          "internalType": "struct PaymentSettlement.Signature",
          "name": "_signature",
          "type": "tuple"
        },
        {
          "internalType": "address",
          "name": "_feeToken",
          "type": "address"
        },
        {
          "internalType": "uint256",
          "name": "_fee",
          "type": "uint256"
        }
      ],
      "name": "verifyDataReverting",
      "outputs": [],
      "stateMutability": "nonpayable",
      "type": "function"
    },
    {
      "inputs": [
        {
          "components": [
            {
              "internalType": "address",
              "name": "token",
              "type": "address"
            },
            {
              "internalType": "address",
              "name": "from",
              "type": "address"
            },
            {
              "internalType": "address",
              "name": "to",
              "type": "address"
            },
            {
              "internalType": "uint256",
              "name": "amount",
              "type": "uint256"
            },
            {
              "components": [
                {
                  "internalType": "uint256",
                  "name": "deadline",
                  "type": "uint256"
                },
                {
                  "components": [
                    {
                      "internalType": "uint8",
                      "name": "v",
                      "type": "uint8"
                    },
                    {
                      "internalType": "bytes32",
                      "name": "r",
                      "type": "bytes32"
                    },
                    {
                      "internalType": "bytes32",
                      "name": "s",
                      "type": "bytes32"
                    }
                  ],
                  "internalType": "struct PaymentSettlement.Signature",
                  "name": "signature",
                  "type": "tuple"
                }
              ],
              "internalType": "struct PaymentSettlement.PermitData",
              "name": "permitData",
              "type": "tuple"
            }
          ],
          "internalType": "struct PaymentSettlement.PaymentData",
          "name": "_paymentData",
          "type": "tuple"
        },
        {
          "components": [
            {
              "internalType": "uint8",
              "name": "v",
              "type": "uint8"
            },
            {
              "internalType": "bytes32",
              "name": "r",
              "type": "bytes32"
            },
            {
              "internalType": "bytes32",
              "name": "s",
              "type": "bytes32"
            }
          ],
          "internalType": "struct PaymentSettlement.Signature",
          "name": "_signature",
          "type": "tuple"
        }
      ],
      "name": "verifySignature",
      "outputs": [
        {
          "internalType": "bool",
          "name": "",
          "type": "bool"
        }
      ],
      "stateMutability": "view",
      "type": "function"
    },
    {
      "inputs": [],
      "name": "weth",
      "outputs": [
        {
          "internalType": "contract IWETH",
          "name": "",
          "type": "address"
        }
      ],
      "stateMutability": "view",
      "type": "function"
    },
    {
      "stateMutability": "payable",
      "type": "receive"
    }
  ],
  "transactionHash": "0x8be59b12066b913101525db2eaecd7720b6b161d83620c1991b7b4fd1ebe3586",
  "args": [
    "0xba09E75749973Ce095121dfc02ec8D8364eE1AC9",
    "0xfFf9976782d46CC05630D1f6eBAb18b2324d6B14"
  ],
  "numDeployments": 1,
  "solcInputHash": "a85134674d51f0ec6077a1bb9e9bb110",
  "bytecode": "0x6101a06040523480156200001257600080fd5b5060405162004956380380620049568339818101604052810190620000389190620004aa565b81816040518060400160405280601181526020017f5061796d656e74536574746c656d656e740000000000000000000000000000008152506040518060400160405280600181526020017f3100000000000000000000000000000000000000000000000000000000000000815250620000bc6000836200024660201b90919060201c565b6101208181525050620000da6001826200024660201b90919060201c565b6101408181525050818051906020012060e08181525050808051906020012061010081815250504660a08181525050620001196200029e60201b60201c565b608081815250503073ffffffffffffffffffffffffffffffffffffffff1660c08173ffffffffffffffffffffffffffffffffffffffff16815250505050620001766200016a620002fb60201b60201c565b6200030360201b60201c565b6000600260146101000a81548160ff0219169083151502179055508173ffffffffffffffffffffffffffffffffffffffff166101608173ffffffffffffffffffffffffffffffffffffffff16815250508073ffffffffffffffffffffffffffffffffffffffff166101808173ffffffffffffffffffffffffffffffffffffffff1681525050505081600460006101000a81548173ffffffffffffffffffffffffffffffffffffffff021916908373ffffffffffffffffffffffffffffffffffffffff160217905550505062000a55565b60006020835110156200026c576200026483620003c960201b60201c565b905062000298565b826200027e836200043660201b60201c565b60000190816200028f91906200076b565b5060ff60001b90505b92915050565b60007f8b73c3c69bb8fe3d512ecc4cf759cc79239f7b179b0ffacaa9a75d522b39400f60e051610100514630604051602001620002e0959493929190620008a3565b60405160208183030381529060405280519060200120905090565b600033905090565b6000600260009054906101000a900473ffffffffffffffffffffffffffffffffffffffff16905081600260006101000a81548173ffffffffffffffffffffffffffffffffffffffff021916908373ffffffffffffffffffffffffffffffffffffffff1602179055508173ffffffffffffffffffffffffffffffffffffffff168173ffffffffffffffffffffffffffffffffffffffff167f8be0079c531659141344cd1fd0a4f28419497f9722a3daafe3b4186f6b6457e060405160405180910390a35050565b600080829050601f815111156200041957826040517f305a27a90000000000000000000000000000000000000000000000000000000081526004016200041091906200098f565b60405180910390fd5b8051816200042790620009e5565b60001c1760001b915050919050565b6000819050919050565b600080fd5b600073ffffffffffffffffffffffffffffffffffffffff82169050919050565b6000620004728262000445565b9050919050565b620004848162000465565b81146200049057600080fd5b50565b600081519050620004a48162000479565b92915050565b60008060408385031215620004c457620004c362000440565b5b6000620004d48582860162000493565b9250506020620004e78582860162000493565b9150509250929050565b600081519050919050565b7f4e487b7100000000000000000000000000000000000000000000000000000000600052604160045260246000fd5b7f4e487b7100000000000000000000000000000000000000000000000000000000600052602260045260246000fd5b600060028204905060018216806200057357607f821691505b6020821081036200058957620005886200052b565b5b50919050565b60008190508160005260206000209050919050565b60006020601f8301049050919050565b600082821b905092915050565b600060088302620005f37fffffffffffffffffffffffffffffffffffffffffffffffffffffffffffffffff82620005b4565b620005ff8683620005b4565b95508019841693508086168417925050509392505050565b6000819050919050565b6000819050919050565b60006200064c62000646620006408462000617565b62000621565b62000617565b9050919050565b6000819050919050565b62000668836200062b565b62000680620006778262000653565b848454620005c1565b825550505050565b600090565b6200069762000688565b620006a48184846200065d565b505050565b5b81811015620006cc57620006c06000826200068d565b600181019050620006aa565b5050565b601f8211156200071b57620006e5816200058f565b620006f084620005a4565b8101602085101562000700578190505b620007186200070f85620005a4565b830182620006a9565b50505b505050565b600082821c905092915050565b6000620007406000198460080262000720565b1980831691505092915050565b60006200075b83836200072d565b9150826002028217905092915050565b6200077682620004f1565b67ffffffffffffffff811115620007925762000791620004fc565b5b6200079e82546200055a565b620007ab828285620006d0565b600060209050601f831160018114620007e35760008415620007ce578287015190505b620007da85826200074d565b8655506200084a565b601f198416620007f3866200058f565b60005b828110156200081d57848901518255600182019150602085019450602081019050620007f6565b868310156200083d578489015162000839601f8916826200072d565b8355505b6001600288020188555050505b505050505050565b6000819050919050565b620008678162000852565b82525050565b620008788162000617565b82525050565b60006200088b8262000445565b9050919050565b6200089d816200087e565b82525050565b600060a082019050620008ba60008301886200085c565b620008c960208301876200085c565b620008d860408301866200085c565b620008e760608301856200086d565b620008f6608083018462000892565b9695505050505050565b600082825260208201905092915050565b60005b838110156200093157808201518184015260208101905062000914565b60008484015250505050565b6000601f19601f8301169050919050565b60006200095b82620004f1565b62000967818562000900565b93506200097981856020860162000911565b62000984816200093d565b840191505092915050565b60006020820190508181036000830152620009ab81846200094e565b905092915050565b600081519050919050565b6000819050602082019050919050565b6000620009dc825162000852565b80915050919050565b6000620009f282620009b3565b82620009fe84620009be565b905062000a0b81620009ce565b9250602082101562000a4e5762000a497fffffffffffffffffffffffffffffffffffffffffffffffffffffffffffffffff83602003600802620005b4565b831692505b5050919050565b60805160a05160c05160e0516101005161012051610140516101605161018051613e7e62000ad8600039600081816101090152818161048c0152818161152d0152611761015260005050600061060c015260006105d801526000611f7c01526000611f5b01526000611979015260006119cf015260006119f80152613e7e6000f3fe6080604052600436106101025760003560e01c80638456cb5911610095578063ab51a85d11610064578063ab51a85d14610388578063f16156ca146103b1578063f2fde38b146103da578063f3e9e6e814610403578063fa461e331461042e57610197565b80638456cb59146102d857806384b0196e146102ef5780638da5cb5b14610320578063a9af7e8a1461034b57610197565b80634fb2e45d116100d15780634fb2e45d146102445780635c975abb1461026d5780635ec2e59f14610298578063715018a6146102c157610197565b8063349f0adc1461019c5780633f4ba83a146101d95780633fc8cef3146101f0578063491a721c1461021b57610197565b36610197577f000000000000000000000000000000000000000000000000000000000000000073ffffffffffffffffffffffffffffffffffffffff163373ffffffffffffffffffffffffffffffffffffffff1614610195576040517f08c379a000000000000000000000000000000000000000000000000000000000815260040161018c90612307565b60405180910390fd5b005b600080fd5b3480156101a857600080fd5b506101c360048036038101906101be919061237f565b610457565b6040516101d091906123dc565b60405180910390f35b3480156101e557600080fd5b506101ee610470565b005b3480156101fc57600080fd5b5061020561048a565b6040516102129190612476565b60405180910390f35b34801561022757600080fd5b50610242600480360381019061023d91906124e1565b6104ae565b005b34801561025057600080fd5b5061026b6004803603810190610266919061253a565b6104f2565b005b34801561027957600080fd5b50610282610506565b60405161028f91906123dc565b60405180910390f35b3480156102a457600080fd5b506102bf60048036038101906102ba919061237f565b61051d565b005b3480156102cd57600080fd5b506102d6610597565b005b3480156102e457600080fd5b506102ed6105ab565b005b3480156102fb57600080fd5b506103046105c5565b6040516103179796959493929190612720565b60405180910390f35b34801561032c57600080fd5b506103356106c7565b60405161034291906127a4565b60405180910390f35b34801561035757600080fd5b50610372600480360381019061036d91906127eb565b6106f1565b60405161037f91906123dc565b60405180910390f35b34801561039457600080fd5b506103af60048036038101906103aa91906127eb565b610849565b005b3480156103bd57600080fd5b506103d860048036038101906103d391906127eb565b610890565b005b3480156103e657600080fd5b5061040160048036038101906103fc919061253a565b6108aa565b005b34801561040f57600080fd5b5061041861092d565b6040516104259190612856565b60405180910390f35b34801561043a57600080fd5b50610455600480360381019061045091906129dc565b610951565b005b6000806104648484610a80565b90508091505092915050565b610478610c0e565b610480610c8c565b610488610cd5565b565b7f000000000000000000000000000000000000000000000000000000000000000081565b80600460006101000a81548173ffffffffffffffffffffffffffffffffffffffff021916908373ffffffffffffffffffffffffffffffffffffffff16021790555050565b6104fa610c0e565b61050381610d38565b50565b6000600260149054906101000a900460ff16905090565b610525610dfe565b61052e33610e48565b61056d576040517f08c379a000000000000000000000000000000000000000000000000000000000815260040161056490612a97565b60405180910390fd5b6000610577610ef2565b90506000610583610f01565b905061059184848484610f10565b50505050565b61059f610c0e565b6105a96000610d38565b565b6105b3610c0e565b6105bb610dfe565b6105c3611220565b565b60006060806000806000606061060560007f000000000000000000000000000000000000000000000000000000000000000061128390919063ffffffff16565b61063960017f000000000000000000000000000000000000000000000000000000000000000061128390919063ffffffff16565b46306000801b600067ffffffffffffffff81111561065a576106596128b1565b5b6040519080825280602002602001820160405280156106885781602001602082028036833780820191505090505b507f0f00000000000000000000000000000000000000000000000000000000000000959493929190965096509650965096509650965090919293949596565b6000600260009054906101000a900473ffffffffffffffffffffffffffffffffffffffff16905090565b60006106fb610dfe565b3073ffffffffffffffffffffffffffffffffffffffff1663ab51a85d868686866040518563ffffffff1660e01b815260040161073a9493929190612d3f565b600060405180830381600087803b15801561075457600080fd5b505af1925050508015610765575060015b61080157610771612d95565b806308c379a0036107f15750610785612db7565b8061079057506107f3565b60405160200161079f90612ec4565b60405160208183030381529060405280519060200120816040516020016107c69190612f0a565b60405160208183030381529060405280519060200120146107eb576000915050610841565b506107fc565b505b60009050610841565b61083c565b6040517f08c379a000000000000000000000000000000000000000000000000000000000815260040161083390612f93565b60405180910390fd5b600190505b949350505050565b61085584848484610f10565b6040517f08c379a000000000000000000000000000000000000000000000000000000000815260040161088790612fd6565b60405180910390fd5b610898610dfe565b6108a484848484610f10565b50505050565b6108b2610c0e565b600073ffffffffffffffffffffffffffffffffffffffff168173ffffffffffffffffffffffffffffffffffffffff1603610921576040517f08c379a000000000000000000000000000000000000000000000000000000000815260040161091890613068565b60405180910390fd5b61092a81610d38565b50565b7f667a8c7f09938d651a2ceb2108bc4cb5496e13b27b76c54d6ef988cede5ae59581565b600360009054906101000a900473ffffffffffffffffffffffffffffffffffffffff1673ffffffffffffffffffffffffffffffffffffffff163373ffffffffffffffffffffffffffffffffffffffff16146109e1576040517f08c379a00000000000000000000000000000000000000000000000000000000081526004016109d8906130fa565b60405180910390fd5b6000818060200190518101906109f79190613158565b90506000808413610a085784610a0a565b835b9050610a3733828473ffffffffffffffffffffffffffffffffffffffff166113339092919063ffffffff16565b50506000600360006101000a81548173ffffffffffffffffffffffffffffffffffffffff021916908373ffffffffffffffffffffffffffffffffffffffff160217905550505050565b600080836000016020810190610a96919061253a565b73ffffffffffffffffffffffffffffffffffffffff16637ecebe00856020016020810190610ac4919061253a565b6040518263ffffffff1660e01b8152600401610ae091906127a4565b602060405180830381865afa158015610afd573d6000803e3d6000fd5b505050506040513d601f19601f82011682018060405250810190610b21919061319a565b905060007f667a8c7f09938d651a2ceb2108bc4cb5496e13b27b76c54d6ef988cede5ae595856040016020810190610b59919061253a565b83604051602001610b6c939291906131c7565b6040516020818303038152906040528051906020012090506000610b8f826113b9565b90506000610bb982876000016020810190610baa91906131fe565b886020013589604001356113d3565b90506000876020016020810190610bd0919061253a565b73ffffffffffffffffffffffffffffffffffffffff168273ffffffffffffffffffffffffffffffffffffffff16149050809550505050505092915050565b610c166113fe565b73ffffffffffffffffffffffffffffffffffffffff16610c346106c7565b73ffffffffffffffffffffffffffffffffffffffff1614610c8a576040517f08c379a0000000000000000000000000000000000000000000000000000000008152600401610c8190613277565b60405180910390fd5b565b610c94610506565b610cd3576040517f08c379a0000000000000000000000000000000000000000000000000000000008152600401610cca906132e3565b60405180910390fd5b565b610cdd610c8c565b6000600260146101000a81548160ff0219169083151502179055507f5db9ee0a495bf2e6ff9c91a7834c1ba4fdd244a5e8aa4e537bd38aeae4b073aa610d216113fe565b604051610d2e91906127a4565b60405180910390a1565b6000600260009054906101000a900473ffffffffffffffffffffffffffffffffffffffff16905081600260006101000a81548173ffffffffffffffffffffffffffffffffffffffff021916908373ffffffffffffffffffffffffffffffffffffffff1602179055508173ffffffffffffffffffffffffffffffffffffffff168173ffffffffffffffffffffffffffffffffffffffff167f8be0079c531659141344cd1fd0a4f28419497f9722a3daafe3b4186f6b6457e060405160405180910390a35050565b610e06610506565b15610e46576040517f08c379a0000000000000000000000000000000000000000000000000000000008152600401610e3d9061334f565b60405180910390fd5b565b6000610144461480610e5b575061011846145b610ea75773abcc9b596420a9e9172fd5938620e265a0f9df9273ffffffffffffffffffffffffffffffffffffffff168273ffffffffffffffffffffffffffffffffffffffff1614610eeb565b73b16a1dbe755f992636705fdbb3a8678a657eb3ea73ffffffffffffffffffffffffffffffffffffffff168273ffffffffffffffffffffffffffffffffffffffff16145b9050919050565b6000610efc611406565b905090565b6000610f0b611415565b905090565b610f1a8484610a80565b610f59576040517f08c379a0000000000000000000000000000000000000000000000000000000008152600401610f50906133e1565b60405180910390fd5b836000016020810190610f6c919061253a565b73ffffffffffffffffffffffffffffffffffffffff1663d505accf856020016020810190610f9a919061253a565b3087606001358860800160000135896080016020016000016020810190610fc191906131fe565b8a608001602001602001358b608001602001604001356040518863ffffffff1660e01b8152600401610ff99796959493929190613410565b600060405180830381600087803b15801561101357600080fd5b505af1158015611027573d6000803e3d6000fd5b50505050611080846020016020810190611041919061253a565b30866060013587600001602081019061105a919061253a565b73ffffffffffffffffffffffffffffffffffffffff16611421909392919063ffffffff16565b6110a2846000016020810190611096919061253a565b856060013584846114aa565b6110aa6117f7565b6111648460000160208101906110c0919061253a565b8560400160208101906110d3919061253a565b8660000160208101906110e6919061253a565b73ffffffffffffffffffffffffffffffffffffffff166370a08231306040518263ffffffff1660e01b815260040161111e91906127a4565b602060405180830381865afa15801561113b573d6000803e3d6000fd5b505050506040513d601f19601f8201168201806040525081019061115f919061319a565b611333565b836040016020810190611177919061253a565b73ffffffffffffffffffffffffffffffffffffffff168460200160208101906111a0919061253a565b73ffffffffffffffffffffffffffffffffffffffff168560000160208101906111c9919061253a565b73ffffffffffffffffffffffffffffffffffffffff167f0913aa4718e76655dbdbde41862a88aba8459d8721849484c97f53af3b5028e68760600135604051611212919061347f565b60405180910390a450505050565b611228610dfe565b6001600260146101000a81548160ff0219169083151502179055507f62e78cea01bee320cd4e420270b5ea74000d11b0c9f74754ebdbfc544b05a25861126c6113fe565b60405161127991906127a4565b60405180910390a1565b606060ff60001b83146112a05761129983611839565b905061132d565b8180546112ac906134c9565b80601f01602080910402602001604051908101604052809291908181526020018280546112d8906134c9565b80156113255780601f106112fa57610100808354040283529160200191611325565b820191906000526020600020905b81548152906001019060200180831161130857829003601f168201915b505050505090505b92915050565b6113b48363a9059cbb60e01b84846040516024016113529291906134fa565b604051602081830303815290604052907bffffffffffffffffffffffffffffffffffffffffffffffffffffffff19166020820180517bffffffffffffffffffffffffffffffffffffffffffffffffffffffff83818316178352505050506118ad565b505050565b60006113cc6113c6611975565b83611a2c565b9050919050565b60008060006113e487878787611a6d565b915091506113f181611b4f565b8192505050949350505050565b600033905090565b6000603436033560601c905090565b60006020360335905090565b6114a4846323b872dd60e01b85858560405160240161144293929190613523565b604051602081830303815290604052907bffffffffffffffffffffffffffffffffffffffffffffffffffffffff19166020820180517bffffffffffffffffffffffffffffffffffffffffffffffffffffffff83818316178352505050506118ad565b50505050565b8373ffffffffffffffffffffffffffffffffffffffff168273ffffffffffffffffffffffffffffffffffffffff1603156117f157600073eeeeeeeeeeeeeeeeeeeeeeeeeeeeeeeeeeeeeeee73ffffffffffffffffffffffffffffffffffffffff168373ffffffffffffffffffffffffffffffffffffffff16149050801561154f577f000000000000000000000000000000000000000000000000000000000000000092505b6000611559611cb5565b905061158681868873ffffffffffffffffffffffffffffffffffffffff16611cdf9092919063ffffffff16565b60008673ffffffffffffffffffffffffffffffffffffffff168273ffffffffffffffffffffffffffffffffffffffff16630dfe16816040518163ffffffff1660e01b8152600401602060405180830381865afa1580156115ea573d6000803e3d6000fd5b505050506040513d601f19601f8201168201806040525081019061160e919061356f565b73ffffffffffffffffffffffffffffffffffffffff16149050600084611633906135cb565b9050600083600360006101000a81548173ffffffffffffffffffffffffffffffffffffffff021916908373ffffffffffffffffffffffffffffffffffffffff1602179055508373ffffffffffffffffffffffffffffffffffffffff1663128acb08308585876116c257600173fffd8963efd1fc6a506488495d951d5263988d266116bd9190613613565b6116d5565b60016401000276a36116d4919061365b565b5b8e6040516020016116e691906127a4565b6040516020818303038152906040526040518663ffffffff1660e01b8152600401611715959493929190613716565b60408051808303816000875af1158015611733573d6000803e3d6000fd5b505050506040513d601f19601f820116820180604052508101906117579190613785565b505084156117eb577f000000000000000000000000000000000000000000000000000000000000000073ffffffffffffffffffffffffffffffffffffffff16632e1a7d4d876040518263ffffffff1660e01b81526004016117b8919061347f565b600060405180830381600087803b1580156117d257600080fd5b505af11580156117e6573d6000803e3d6000fd5b505050505b50505050505b50505050565b611837611802611e2e565b61180a610f01565b611812610ef2565b73ffffffffffffffffffffffffffffffffffffffff16611e3d9092919063ffffffff16565b565b6060600061184683611ece565b90506000602067ffffffffffffffff811115611865576118646128b1565b5b6040519080825280601f01601f1916602001820160405280156118975781602001600182028036833780820191505090505b5090508181528360208201528092505050919050565b600061190f826040518060400160405280602081526020017f5361666545524332303a206c6f772d6c6576656c2063616c6c206661696c65648152508573ffffffffffffffffffffffffffffffffffffffff16611f1e9092919063ffffffff16565b905060008151148061193157508080602001905181019061193091906137f1565b5b611970576040517f08c379a000000000000000000000000000000000000000000000000000000000815260040161196790613890565b60405180910390fd5b505050565b60007f000000000000000000000000000000000000000000000000000000000000000073ffffffffffffffffffffffffffffffffffffffff163073ffffffffffffffffffffffffffffffffffffffff161480156119f157507f000000000000000000000000000000000000000000000000000000000000000046145b15611a1e577f00000000000000000000000000000000000000000000000000000000000000009050611a29565b611a26611f36565b90505b90565b60006040517f190100000000000000000000000000000000000000000000000000000000000081528360028201528260228201526042812091505092915050565b6000807f7fffffffffffffffffffffffffffffff5d576e7357a4501ddfe92f46681b20a08360001c1115611aa8576000600391509150611b46565b600060018787878760405160008152602001604052604051611acd94939291906138b0565b6020604051602081039080840390855afa158015611aef573d6000803e3d6000fd5b505050602060405103519050600073ffffffffffffffffffffffffffffffffffffffff168173ffffffffffffffffffffffffffffffffffffffff1603611b3d57600060019250925050611b46565b80600092509250505b94509492505050565b60006004811115611b6357611b626138f5565b5b816004811115611b7657611b756138f5565b5b0315611cb25760016004811115611b9057611b8f6138f5565b5b816004811115611ba357611ba26138f5565b5b03611be3576040517f08c379a0000000000000000000000000000000000000000000000000000000008152600401611bda90613970565b60405180910390fd5b60026004811115611bf757611bf66138f5565b5b816004811115611c0a57611c096138f5565b5b03611c4a576040517f08c379a0000000000000000000000000000000000000000000000000000000008152600401611c41906139dc565b60405180910390fd5b60036004811115611c5e57611c5d6138f5565b5b816004811115611c7157611c706138f5565b5b03611cb1576040517f08c379a0000000000000000000000000000000000000000000000000000000008152600401611ca890613a6e565b60405180910390fd5b5b50565b6000600460009054906101000a900473ffffffffffffffffffffffffffffffffffffffff16905090565b6000811480611d69575060008373ffffffffffffffffffffffffffffffffffffffff1663dd62ed3e30856040518363ffffffff1660e01b8152600401611d26929190613a8e565b602060405180830381865afa158015611d43573d6000803e3d6000fd5b505050506040513d601f19601f82011682018060405250810190611d67919061319a565b145b611da8576040517f08c379a0000000000000000000000000000000000000000000000000000000008152600401611d9f90613b29565b60405180910390fd5b611e298363095ea7b360e01b8484604051602401611dc79291906134fa565b604051602081830303815290604052907bffffffffffffffffffffffffffffffffffffffffffffffffffffffff19166020820180517bffffffffffffffffffffffffffffffffffffffffffffffffffffffff83818316178352505050506118ad565b505050565b6000611e38611fcc565b905090565b6000810315611ec95773eeeeeeeeeeeeeeeeeeeeeeeeeeeeeeeeeeeeeeee73ffffffffffffffffffffffffffffffffffffffff168373ffffffffffffffffffffffffffffffffffffffff1614611ebd57611eb882828573ffffffffffffffffffffffffffffffffffffffff166113339092919063ffffffff16565b611ec8565b611ec78282611fdb565b5b5b505050565b60008060ff8360001c169050601f811115611f15576040517fb3512b0c00000000000000000000000000000000000000000000000000000000815260040160405180910390fd5b80915050919050565b6060611f2d84846000856120cf565b90509392505050565b60007f8b73c3c69bb8fe3d512ecc4cf759cc79239f7b179b0ffacaa9a75d522b39400f7f00000000000000000000000000000000000000000000000000000000000000007f00000000000000000000000000000000000000000000000000000000000000004630604051602001611fb1959493929190613b49565b60405160208183030381529060405280519060200120905090565b6000604836033560601c905090565b8047101561201e576040517f08c379a000000000000000000000000000000000000000000000000000000000815260040161201590613be8565b60405180910390fd5b60008273ffffffffffffffffffffffffffffffffffffffff168260405161204490613c39565b60006040518083038185875af1925050503d8060008114612081576040519150601f19603f3d011682016040523d82523d6000602084013e612086565b606091505b50509050806120ca576040517f08c379a00000000000000000000000000000000000000000000000000000000081526004016120c190613cc0565b60405180910390fd5b505050565b606082471015612114576040517f08c379a000000000000000000000000000000000000000000000000000000000815260040161210b90613d52565b60405180910390fd5b6000808673ffffffffffffffffffffffffffffffffffffffff16858760405161213d9190613da3565b60006040518083038185875af1925050503d806000811461217a576040519150601f19603f3d011682016040523d82523d6000602084013e61217f565b606091505b50915091506121908783838761219c565b92505050949350505050565b606083156121fe5760008351036121f6576121b685612211565b6121f5576040517f08c379a00000000000000000000000000000000000000000000000000000000081526004016121ec90613e06565b60405180910390fd5b5b829050612209565b6122088383612234565b5b949350505050565b6000808273ffffffffffffffffffffffffffffffffffffffff163b119050919050565b6000825111156122475781518083602001fd5b806040517f08c379a000000000000000000000000000000000000000000000000000000000815260040161227b9190613e26565b60405180910390fd5b600082825260208201905092915050565b7f5061796d656e74536574746c656d656e743a20696e76616c6964206d73672e7360008201527f656e646572000000000000000000000000000000000000000000000000000000602082015250565b60006122f1602583612284565b91506122fc82612295565b604082019050919050565b60006020820190508181036000830152612320816122e4565b9050919050565b6000604051905090565b600080fd5b600080fd5b600080fd5b600061010082840312156123575761235661233b565b5b81905092915050565b6000606082840312156123765761237561233b565b5b81905092915050565b600080610160838503121561239757612396612331565b5b60006123a585828601612340565b9250506101006123b785828601612360565b9150509250929050565b60008115159050919050565b6123d6816123c1565b82525050565b60006020820190506123f160008301846123cd565b92915050565b600073ffffffffffffffffffffffffffffffffffffffff82169050919050565b6000819050919050565b600061243c612437612432846123f7565b612417565b6123f7565b9050919050565b600061244e82612421565b9050919050565b600061246082612443565b9050919050565b61247081612455565b82525050565b600060208201905061248b6000830184612467565b92915050565b600061249c826123f7565b9050919050565b60006124ae82612491565b9050919050565b6124be816124a3565b81146124c957600080fd5b50565b6000813590506124db816124b5565b92915050565b6000602082840312156124f7576124f6612331565b5b6000612505848285016124cc565b91505092915050565b61251781612491565b811461252257600080fd5b50565b6000813590506125348161250e565b92915050565b6000602082840312156125505761254f612331565b5b600061255e84828501612525565b91505092915050565b60007fff0000000000000000000000000000000000000000000000000000000000000082169050919050565b61259c81612567565b82525050565b600081519050919050565b60005b838110156125cb5780820151818401526020810190506125b0565b60008484015250505050565b6000601f19601f8301169050919050565b60006125f3826125a2565b6125fd8185612284565b935061260d8185602086016125ad565b612616816125d7565b840191505092915050565b6000819050919050565b61263481612621565b82525050565b61264381612491565b82525050565b6000819050919050565b61265c81612649565b82525050565b600081519050919050565b600082825260208201905092915050565b6000819050602082019050919050565b61269781612621565b82525050565b60006126a9838361268e565b60208301905092915050565b6000602082019050919050565b60006126cd82612662565b6126d7818561266d565b93506126e28361267e565b8060005b838110156127135781516126fa888261269d565b9750612705836126b5565b9250506001810190506126e6565b5085935050505092915050565b600060e082019050612735600083018a612593565b818103602083015261274781896125e8565b9050818103604083015261275b81886125e8565b905061276a606083018761262b565b612777608083018661263a565b61278460a0830185612653565b81810360c083015261279681846126c2565b905098975050505050505050565b60006020820190506127b9600083018461263a565b92915050565b6127c881612621565b81146127d357600080fd5b50565b6000813590506127e5816127bf565b92915050565b6000806000806101a0858703121561280657612805612331565b5b600061281487828801612340565b94505061010061282687828801612360565b93505061016061283887828801612525565b92505061018061284a878288016127d6565b91505092959194509250565b600060208201905061286b6000830184612653565b92915050565b6000819050919050565b61288481612871565b811461288f57600080fd5b50565b6000813590506128a18161287b565b92915050565b600080fd5b600080fd5b7f4e487b7100000000000000000000000000000000000000000000000000000000600052604160045260246000fd5b6128e9826125d7565b810181811067ffffffffffffffff82111715612908576129076128b1565b5b80604052505050565b600061291b612327565b905061292782826128e0565b919050565b600067ffffffffffffffff821115612947576129466128b1565b5b612950826125d7565b9050602081019050919050565b82818337600083830152505050565b600061297f61297a8461292c565b612911565b90508281526020810184848401111561299b5761299a6128ac565b5b6129a684828561295d565b509392505050565b600082601f8301126129c3576129c26128a7565b5b81356129d384826020860161296c565b91505092915050565b6000806000606084860312156129f5576129f4612331565b5b6000612a0386828701612892565b9350506020612a1486828701612892565b925050604084013567ffffffffffffffff811115612a3557612a34612336565b5b612a41868287016129ae565b9150509250925092565b7f6f6e6c7947656c61746f52656c61790000000000000000000000000000000000600082015250565b6000612a81600f83612284565b9150612a8c82612a4b565b602082019050919050565b60006020820190508181036000830152612ab081612a74565b9050919050565b6000612ac66020840184612525565b905092915050565b612ad781612491565b82525050565b6000612aec60208401846127d6565b905092915050565b600082905092915050565b600082905092915050565b600060ff82169050919050565b612b2081612b0a565b8114612b2b57600080fd5b50565b600081359050612b3d81612b17565b92915050565b6000612b526020840184612b2e565b905092915050565b612b6381612b0a565b82525050565b612b7281612649565b8114612b7d57600080fd5b50565b600081359050612b8f81612b69565b92915050565b6000612ba46020840184612b80565b905092915050565b612bb581612649565b82525050565b60608201612bcc6000830183612b43565b612bd96000850182612b5a565b50612be76020830183612b95565b612bf46020850182612bac565b50612c026040830183612b95565b612c0f6040850182612bac565b50505050565b60808201612c266000830183612add565b612c33600085018261268e565b50612c416020830183612aff565b612c4e6020850182612bbb565b50505050565b6101008201612c666000830183612ab7565b612c736000850182612ace565b50612c816020830183612ab7565b612c8e6020850182612ace565b50612c9c6040830183612ab7565b612ca96040850182612ace565b50612cb76060830183612add565b612cc4606085018261268e565b50612cd26080830183612af4565b612cdf6080850182612c15565b50505050565b60608201612cf66000830183612b43565b612d036000850182612b5a565b50612d116020830183612b95565b612d1e6020850182612bac565b50612d2c6040830183612b95565b612d396040850182612bac565b50505050565b60006101a082019050612d556000830187612c54565b612d63610100830186612ce5565b612d7161016083018561263a565b612d7f61018083018461262b565b95945050505050565b60008160e01c9050919050565b600060033d1115612db45760046000803e612db1600051612d88565b90505b90565b600060443d10612e4457612dc9612327565b60043d036004823e80513d602482011167ffffffffffffffff82111715612df1575050612e44565b808201805167ffffffffffffffff811115612e0f5750505050612e44565b80602083010160043d038501811115612e2c575050505050612e44565b612e3b826020018501866128e0565b82955050505050505b90565b600081905092915050565b7f5061796d656e74536574746c656d656e743a20766572696669636174696f6e2060008201527f636f6d706c657465000000000000000000000000000000000000000000000000602082015250565b6000612eae602883612e47565b9150612eb982612e52565b602882019050919050565b6000612ecf82612ea1565b9150819050919050565b6000612ee4826125a2565b612eee8185612e47565b9350612efe8185602086016125ad565b80840191505092915050565b6000612f168284612ed9565b915081905092915050565b7f5061796d656e74536574746c656d656e743a207665726966794461746152657660008201527f657274696e6720646964206e6f74207265766572740000000000000000000000602082015250565b6000612f7d603583612284565b9150612f8882612f21565b604082019050919050565b60006020820190508181036000830152612fac81612f70565b9050919050565b6000612fc0602883612284565b9150612fcb82612e52565b604082019050919050565b60006020820190508181036000830152612fef81612fb3565b9050919050565b7f4f776e61626c653a206e6577206f776e657220697320746865207a65726f206160008201527f6464726573730000000000000000000000000000000000000000000000000000602082015250565b6000613052602683612284565b915061305d82612ff6565b604082019050919050565b6000602082019050818103600083015261308181613045565b9050919050565b7f41756374696f6e426f743a206d73672e73656e64657220213d20616c6c6f776560008201527f6443616c6c6261636b0000000000000000000000000000000000000000000000602082015250565b60006130e4602983612284565b91506130ef82613088565b604082019050919050565b60006020820190508181036000830152613113816130d7565b9050919050565b6000613125826123f7565b9050919050565b6131358161311a565b811461314057600080fd5b50565b6000815190506131528161312c565b92915050565b60006020828403121561316e5761316d612331565b5b600061317c84828501613143565b91505092915050565b600081519050613194816127bf565b92915050565b6000602082840312156131b0576131af612331565b5b60006131be84828501613185565b91505092915050565b60006060820190506131dc6000830186612653565b6131e9602083018561263a565b6131f6604083018461262b565b949350505050565b60006020828403121561321457613213612331565b5b600061322284828501612b2e565b91505092915050565b7f4f776e61626c653a2063616c6c6572206973206e6f7420746865206f776e6572600082015250565b6000613261602083612284565b915061326c8261322b565b602082019050919050565b6000602082019050818103600083015261329081613254565b9050919050565b7f5061757361626c653a206e6f7420706175736564000000000000000000000000600082015250565b60006132cd601483612284565b91506132d882613297565b602082019050919050565b600060208201905081810360008301526132fc816132c0565b9050919050565b7f5061757361626c653a2070617573656400000000000000000000000000000000600082015250565b6000613339601083612284565b915061334482613303565b602082019050919050565b600060208201905081810360008301526133688161332c565b9050919050565b7f5061796d656e74536574746c656d656e743a20696e76616c6964207369676e6160008201527f7475726500000000000000000000000000000000000000000000000000000000602082015250565b60006133cb602483612284565b91506133d68261336f565b604082019050919050565b600060208201905081810360008301526133fa816133be565b9050919050565b61340a81612b0a565b82525050565b600060e082019050613425600083018a61263a565b613432602083018961263a565b61343f604083018861262b565b61344c606083018761262b565b6134596080830186613401565b61346660a0830185612653565b61347360c0830184612653565b98975050505050505050565b6000602082019050613494600083018461262b565b92915050565b7f4e487b7100000000000000000000000000000000000000000000000000000000600052602260045260246000fd5b600060028204905060018216806134e157607f821691505b6020821081036134f4576134f361349a565b5b50919050565b600060408201905061350f600083018561263a565b61351c602083018461262b565b9392505050565b6000606082019050613538600083018661263a565b613545602083018561263a565b613552604083018461262b565b949350505050565b6000815190506135698161250e565b92915050565b60006020828403121561358557613584612331565b5b60006135938482850161355a565b91505092915050565b7f4e487b7100000000000000000000000000000000000000000000000000000000600052601160045260246000fd5b60006135d682612871565b91507f800000000000000000000000000000000000000000000000000000000000000082036136085761360761359c565b5b816000039050919050565b600061361e826123f7565b9150613629836123f7565b9250828203905073ffffffffffffffffffffffffffffffffffffffff8111156136555761365461359c565b5b92915050565b6000613666826123f7565b9150613671836123f7565b9250828201905073ffffffffffffffffffffffffffffffffffffffff81111561369d5761369c61359c565b5b92915050565b6136ac81612871565b82525050565b6136bb816123f7565b82525050565b600081519050919050565b600082825260208201905092915050565b60006136e8826136c1565b6136f281856136cc565b93506137028185602086016125ad565b61370b816125d7565b840191505092915050565b600060a08201905061372b600083018861263a565b61373860208301876123cd565b61374560408301866136a3565b61375260608301856136b2565b818103608083015261376481846136dd565b90509695505050505050565b60008151905061377f8161287b565b92915050565b6000806040838503121561379c5761379b612331565b5b60006137aa85828601613770565b92505060206137bb85828601613770565b9150509250929050565b6137ce816123c1565b81146137d957600080fd5b50565b6000815190506137eb816137c5565b92915050565b60006020828403121561380757613806612331565b5b6000613815848285016137dc565b91505092915050565b7f5361666545524332303a204552433230206f7065726174696f6e20646964206e60008201527f6f74207375636365656400000000000000000000000000000000000000000000602082015250565b600061387a602a83612284565b91506138858261381e565b604082019050919050565b600060208201905081810360008301526138a98161386d565b9050919050565b60006080820190506138c56000830187612653565b6138d26020830186613401565b6138df6040830185612653565b6138ec6060830184612653565b95945050505050565b7f4e487b7100000000000000000000000000000000000000000000000000000000600052602160045260246000fd5b7f45434453413a20696e76616c6964207369676e61747572650000000000000000600082015250565b600061395a601883612284565b915061396582613924565b602082019050919050565b600060208201905081810360008301526139898161394d565b9050919050565b7f45434453413a20696e76616c6964207369676e6174757265206c656e67746800600082015250565b60006139c6601f83612284565b91506139d182613990565b602082019050919050565b600060208201905081810360008301526139f5816139b9565b9050919050565b7f45434453413a20696e76616c6964207369676e6174757265202773272076616c60008201527f7565000000000000000000000000000000000000000000000000000000000000602082015250565b6000613a58602283612284565b9150613a63826139fc565b604082019050919050565b60006020820190508181036000830152613a8781613a4b565b9050919050565b6000604082019050613aa3600083018561263a565b613ab0602083018461263a565b9392505050565b7f5361666545524332303a20617070726f76652066726f6d206e6f6e2d7a65726f60008201527f20746f206e6f6e2d7a65726f20616c6c6f77616e636500000000000000000000602082015250565b6000613b13603683612284565b9150613b1e82613ab7565b604082019050919050565b60006020820190508181036000830152613b4281613b06565b9050919050565b600060a082019050613b5e6000830188612653565b613b6b6020830187612653565b613b786040830186612653565b613b85606083018561262b565b613b92608083018461263a565b9695505050505050565b7f416464726573733a20696e73756666696369656e742062616c616e6365000000600082015250565b6000613bd2601d83612284565b9150613bdd82613b9c565b602082019050919050565b60006020820190508181036000830152613c0181613bc5565b9050919050565b600081905092915050565b50565b6000613c23600083613c08565b9150613c2e82613c13565b600082019050919050565b6000613c4482613c16565b9150819050919050565b7f416464726573733a20756e61626c6520746f2073656e642076616c75652c207260008201527f6563697069656e74206d61792068617665207265766572746564000000000000602082015250565b6000613caa603a83612284565b9150613cb582613c4e565b604082019050919050565b60006020820190508181036000830152613cd981613c9d565b9050919050565b7f416464726573733a20696e73756666696369656e742062616c616e636520666f60008201527f722063616c6c0000000000000000000000000000000000000000000000000000602082015250565b6000613d3c602683612284565b9150613d4782613ce0565b604082019050919050565b60006020820190508181036000830152613d6b81613d2f565b9050919050565b6000613d7d826136c1565b613d878185613c08565b9350613d978185602086016125ad565b80840191505092915050565b6000613daf8284613d72565b915081905092915050565b7f416464726573733a2063616c6c20746f206e6f6e2d636f6e7472616374000000600082015250565b6000613df0601d83612284565b9150613dfb82613dba565b602082019050919050565b60006020820190508181036000830152613e1f81613de3565b9050919050565b60006020820190508181036000830152613e4081846125e8565b90509291505056fea26469706673582212205b2a3c7ff0104fd85f4d70d208074c6d8bd4a6d10779d35393495c878e1d033564736f6c63430008140033",
  "devdoc": {
    "events": {
      "EIP712DomainChanged()": {
        "details": "MAY be emitted to signal that the domain could have changed."
      },
      "Paused(address)": {
        "details": "Emitted when the pause is triggered by `account`."
      },
      "Unpaused(address)": {
        "details": "Emitted when the pause is lifted by `account`."
      }
    },
    "kind": "dev",
    "methods": {
      "eip712Domain()": {
        "details": "See {EIP-5267}. _Available since v4.9._"
      },
      "owner()": {
        "details": "Returns the address of the current owner."
      },
      "paused()": {
        "details": "Returns true if the contract is paused, and false otherwise."
      },
      "renounceOwnership()": {
        "details": "Leaves the contract without owner. It will not be possible to call `onlyOwner` functions. Can only be called by the current owner. NOTE: Renouncing ownership will leave the contract without an owner, thereby disabling any functionality that is only available to the owner."
      },
      "transferOwnership(address)": {
        "details": "Transfers ownership of the contract to a new account (`newOwner`). Can only be called by the current owner."
      }
    },
    "version": 1
  },
  "userdoc": {
    "kind": "user",
    "methods": {},
    "version": 1
  },
  "storageLayout": {
    "storage": [
      {
        "astId": 2397,
        "contract": "contracts/test/PaymentSettlementTestHarness.sol:PaymentSettlementTestHarness",
        "label": "_nameFallback",
        "offset": 0,
        "slot": "0",
        "type": "t_string_storage"
      },
      {
        "astId": 2399,
        "contract": "contracts/test/PaymentSettlementTestHarness.sol:PaymentSettlementTestHarness",
        "label": "_versionFallback",
        "offset": 0,
        "slot": "1",
        "type": "t_string_storage"
      },
      {
        "astId": 363,
        "contract": "contracts/test/PaymentSettlementTestHarness.sol:PaymentSettlementTestHarness",
        "label": "_owner",
        "offset": 0,
        "slot": "2",
        "type": "t_address"
      },
      {
        "astId": 511,
        "contract": "contracts/test/PaymentSettlementTestHarness.sol:PaymentSettlementTestHarness",
        "label": "_paused",
        "offset": 20,
        "slot": "2",
        "type": "t_bool"
      },
      {
        "astId": 3591,
        "contract": "contracts/test/PaymentSettlementTestHarness.sol:PaymentSettlementTestHarness",
        "label": "allowedCallback",
        "offset": 0,
        "slot": "3",
        "type": "t_address"
      },
      {
        "astId": 4683,
        "contract": "contracts/test/PaymentSettlementTestHarness.sol:PaymentSettlementTestHarness",
        "label": "uniV3PoolOverride",
        "offset": 0,
        "slot": "4",
        "type": "t_contract(IUniV3Pool)4567"
      }
    ],
    "types": {
      "t_address": {
        "encoding": "inplace",
        "label": "address",
        "numberOfBytes": "20"
      },
      "t_bool": {
        "encoding": "inplace",
        "label": "bool",
        "numberOfBytes": "1"
      },
      "t_contract(IUniV3Pool)4567": {
        "encoding": "inplace",
        "label": "contract IUniV3Pool",
        "numberOfBytes": "20"
      },
      "t_string_storage": {
        "encoding": "bytes",
        "label": "string",
        "numberOfBytes": "32"
      }
    }
  }
}