{
  "address": "0x62E028A0FeE5925de63F9bAb1a31Fb922C51386C",
  "abi": [
    {
      "inputs": [
        {
          "internalType": "address payable",
          "name": "_uniV3Pool",
          "type": "address"
        },
        {
          "internalType": "address payable",
          "name": "_weth",
          "type": "address"
        }
      ],
      "stateMutability": "nonpayable",
      "type": "constructor"
    },
    {
      "inputs": [],
      "name": "InvalidShortString",
      "type": "error"
    },
    {
      "inputs": [
        {
          "internalType": "string",
          "name": "str",
          "type": "string"
        }
      ],
      "name": "StringTooLong",
      "type": "error"
    },
    {
      "anonymous": false,
      "inputs": [],
      "name": "EIP712DomainChanged",
      "type": "event"
    },
    {
      "anonymous": false,
      "inputs": [
        {
          "indexed": true,
          "internalType": "address",
          "name": "previousOwner",
          "type": "address"
        },
        {
          "indexed": true,
          "internalType": "address",
          "name": "newOwner",
          "type": "address"
        }
      ],
      "name": "OwnershipTransferred",
      "type": "event"
    },
    {
      "anonymous": false,
      "inputs": [
        {
          "indexed": false,
          "internalType": "address",
          "name": "account",
          "type": "address"
        }
      ],
      "name": "Paused",
      "type": "event"
    },
    {
      "anonymous": false,
      "inputs": [
        {
          "indexed": true,
          "internalType": "address",
          "name": "token",
          "type": "address"
        },
        {
          "indexed": true,
          "internalType": "address",
          "name": "from",
          "type": "address"
        },
        {
          "indexed": true,
          "internalType": "address",
          "name": "to",
          "type": "address"
        },
        {
          "indexed": false,
          "internalType": "uint256",
          "name": "amount",
          "type": "uint256"
        }
      ],
      "name": "Payment",
      "type": "event"
    },
    {
      "anonymous": false,
      "inputs": [
        {
          "indexed": false,
          "internalType": "address",
          "name": "account",
          "type": "address"
        }
      ],
      "name": "Unpaused",
      "type": "event"
    },
    {
      "inputs": [],
      "name": "PAY_TYPEHASH",
      "outputs": [
        {
          "internalType": "bytes32",
          "name": "",
          "type": "bytes32"
        }
      ],
      "stateMutability": "view",
      "type": "function"
    },
    {
      "inputs": [],
      "name": "eip712Domain",
      "outputs": [
        {
          "internalType": "bytes1",
          "name": "fields",
          "type": "bytes1"
        },
        {
          "internalType": "string",
          "name": "name",
          "type": "string"
        },
        {
          "internalType": "string",
          "name": "version",
          "type": "string"
        },
        {
          "internalType": "uint256",
          "name": "chainId",
          "type": "uint256"
        },
        {
          "internalType": "address",
          "name": "verifyingContract",
          "type": "address"
        },
        {
          "internalType": "bytes32",
          "name": "salt",
          "type": "bytes32"
        },
        {
          "internalType": "uint256[]",
          "name": "extensions",
          "type": "uint256[]"
        }
      ],
      "stateMutability": "view",
      "type": "function"
    },
    {
      "inputs": [],
      "name": "owner",
      "outputs": [
        {
          "internalType": "address",
          "name": "",
          "type": "address"
        }
      ],
      "stateMutability": "view",
      "type": "function"
    },
    {
      "inputs": [],
      "name": "pause",
      "outputs": [],
      "stateMutability": "nonpayable",
      "type": "function"
    },
    {
      "inputs": [],
      "name": "paused",
      "outputs": [
        {
          "internalType": "bool",
          "name": "",
          "type": "bool"
        }
      ],
      "stateMutability": "view",
      "type": "function"
    },
    {
      "inputs": [
        {
          "components": [
            {
              "internalType": "address",
              "name": "token",
              "type": "address"
            },
            {
              "internalType": "address",
              "name": "from",
              "type": "address"
            },
            {
              "internalType": "address",
              "name": "to",
              "type": "address"
            },
            {
              "internalType": "uint256",
              "name": "amount",
              "type": "uint256"
            },
            {
              "components": [
                {
                  "internalType": "uint256",
                  "name": "deadline",
                  "type": "uint256"
                },
                {
                  "components": [
                    {
                      "internalType": "uint8",
                      "name": "v",
                      "type": "uint8"
                    },
                    {
                      "internalType": "bytes32",
                      "name": "r",
                      "type": "bytes32"
                    },
                    {
                      "internalType": "bytes32",
                      "name": "s",
                      "type": "bytes32"
                    }
                  ],
                  "internalType": "struct PaymentSettlement.Signature",
                  "name": "signature",
                  "type": "tuple"
                }
              ],
              "internalType": "struct PaymentSettlement.PermitData",
              "name": "permitData",
              "type": "tuple"
            }
          ],
          "internalType": "struct PaymentSettlement.PaymentData",
          "name": "_paymentData",
          "type": "tuple"
        },
        {
          "components": [
            {
              "internalType": "uint8",
              "name": "v",
              "type": "uint8"
            },
            {
              "internalType": "bytes32",
              "name": "r",
              "type": "bytes32"
            },
            {
              "internalType": "bytes32",
              "name": "s",
              "type": "bytes32"
            }
          ],
          "internalType": "struct PaymentSettlement.Signature",
          "name": "_signature",
          "type": "tuple"
        }
      ],
      "name": "pay",
      "outputs": [],
      "stateMutability": "nonpayable",
      "type": "function"
    },
    {
      "inputs": [
        {
          "components": [
            {
              "internalType": "address",
              "name": "token",
              "type": "address"
            },
            {
              "internalType": "address",
              "name": "from",
              "type": "address"
            },
            {
              "internalType": "address",
              "name": "to",
              "type": "address"
            },
            {
              "internalType": "uint256",
              "name": "amount",
              "type": "uint256"
            },
            {
              "components": [
                {
                  "internalType": "uint256",
                  "name": "deadline",
                  "type": "uint256"
                },
                {
                  "components": [
                    {
                      "internalType": "uint8",
                      "name": "v",
                      "type": "uint8"
                    },
                    {
                      "internalType": "bytes32",
                      "name": "r",
                      "type": "bytes32"
                    },
                    {
                      "internalType": "bytes32",
                      "name": "s",
                      "type": "bytes32"
                    }
                  ],
                  "internalType": "struct PaymentSettlement.Signature",
                  "name": "signature",
                  "type": "tuple"
                }
              ],
              "internalType": "struct PaymentSettlement.PermitData",
              "name": "permitData",
              "type": "tuple"
            }
          ],
          "internalType": "struct PaymentSettlement.PaymentData",
          "name": "_paymentData",
          "type": "tuple"
        },
        {
          "components": [
            {
              "internalType": "uint8",
              "name": "v",
              "type": "uint8"
            },
            {
              "internalType": "bytes32",
              "name": "r",
              "type": "bytes32"
            },
            {
              "internalType": "bytes32",
              "name": "s",
              "type": "bytes32"
            }
          ],
          "internalType": "struct PaymentSettlement.Signature",
          "name": "_signature",
          "type": "tuple"
        },
        {
          "internalType": "address",
          "name": "_feeToken",
          "type": "address"
        },
        {
          "internalType": "uint256",
          "name": "_fee",
          "type": "uint256"
        }
      ],
      "name": "payTest",
      "outputs": [],
      "stateMutability": "nonpayable",
      "type": "function"
    },
    {
      "inputs": [],
      "name": "renounceOwnership",
      "outputs": [],
      "stateMutability": "nonpayable",
      "type": "function"
    },
    {
      "inputs": [
        {
          "internalType": "contract IUniV3Pool",
          "name": "_newPool",
          "type": "address"
        }
      ],
      "name": "setUniV3Pool",
      "outputs": [],
      "stateMutability": "nonpayable",
      "type": "function"
    },
    {
      "inputs": [
        {
          "internalType": "address",
          "name": "_newOwner",
          "type": "address"
        }
      ],
      "name": "transferOwner",
      "outputs": [],
      "stateMutability": "nonpayable",
      "type": "function"
    },
    {
      "inputs": [
        {
          "internalType": "address",
          "name": "newOwner",
          "type": "address"
        }
      ],
      "name": "transferOwnership",
      "outputs": [],
      "stateMutability": "nonpayable",
      "type": "function"
    },
    {
      "inputs": [
        {
          "internalType": "int256",
          "name": "amount0Delta",
          "type": "int256"
        },
        {
          "internalType": "int256",
          "name": "amount1Delta",
          "type": "int256"
        },
        {
          "internalType": "bytes",
          "name": "data",
          "type": "bytes"
        }
      ],
      "name": "uniswapV3SwapCallback",
      "outputs": [],
      "stateMutability": "nonpayable",
      "type": "function"
    },
    {
      "inputs": [],
      "name": "unpause",
      "outputs": [],
      "stateMutability": "nonpayable",
      "type": "function"
    },
    {
      "inputs": [
        {
          "components": [
            {
              "internalType": "address",
              "name": "token",
              "type": "address"
            },
            {
              "internalType": "address",
              "name": "from",
              "type": "address"
            },
            {
              "internalType": "address",
              "name": "to",
              "type": "address"
            },
            {
              "internalType": "uint256",
              "name": "amount",
              "type": "uint256"
            },
            {
              "components": [
                {
                  "internalType": "uint256",
                  "name": "deadline",
                  "type": "uint256"
                },
                {
                  "components": [
                    {
                      "internalType": "uint8",
                      "name": "v",
                      "type": "uint8"
                    },
                    {
                      "internalType": "bytes32",
                      "name": "r",
                      "type": "bytes32"
                    },
                    {
                      "internalType": "bytes32",
                      "name": "s",
                      "type": "bytes32"
                    }
                  ],
                  "internalType": "struct PaymentSettlement.Signature",
                  "name": "signature",
                  "type": "tuple"
                }
              ],
              "internalType": "struct PaymentSettlement.PermitData",
              "name": "permitData",
              "type": "tuple"
            }
          ],
          "internalType": "struct PaymentSettlement.PaymentData",
          "name": "_paymentData",
          "type": "tuple"
        },
        {
          "components": [
            {
              "internalType": "uint8",
              "name": "v",
              "type": "uint8"
            },
            {
              "internalType": "bytes32",
              "name": "r",
              "type": "bytes32"
            },
            {
              "internalType": "bytes32",
              "name": "s",
              "type": "bytes32"
            }
          ],
          "internalType": "struct PaymentSettlement.Signature",
          "name": "_signature",
          "type": "tuple"
        },
        {
          "internalType": "address",
          "name": "_feeToken",
          "type": "address"
        },
        {
          "internalType": "uint256",
          "name": "_fee",
          "type": "uint256"
        }
      ],
      "name": "verifyData",
      "outputs": [
        {
          "internalType": "bool",
          "name": "",
          "type": "bool"
        }
      ],
      "stateMutability": "nonpayable",
      "type": "function"
    },
    {
      "inputs": [
        {
          "components": [
            {
              "internalType": "address",
              "name": "token",
              "type": "address"
            },
            {
              "internalType": "address",
              "name": "from",
              "type": "address"
            },
            {
              "internalType": "address",
              "name": "to",
              "type": "address"
            },
            {
              "internalType": "uint256",
              "name": "amount",
              "type": "uint256"
            },
            {
              "components": [
                {
                  "internalType": "uint256",
                  "name": "deadline",
                  "type": "uint256"
                },
                {
                  "components": [
                    {
                      "internalType": "uint8",
                      "name": "v",
                      "type": "uint8"
                    },
                    {
                      "internalType": "bytes32",
                      "name": "r",
                      "type": "bytes32"
                    },
                    {
                      "internalType": "bytes32",
                      "name": "s",
                      "type": "bytes32"
                    }
                  ],
                  "internalType": "struct PaymentSettlement.Signature",
                  "name": "signature",
                  "type": "tuple"
                }
              ],
              "internalType": "struct PaymentSettlement.PermitData",
              "name": "permitData",
              "type": "tuple"
            }
          ],
          "internalType": "struct PaymentSettlement.PaymentData",
          "name": "_paymentData",
          "type": "tuple"
        },
        {
          "components": [
            {
              "internalType": "uint8",
              "name": "v",
              "type": "uint8"
            },
            {
              "internalType": "bytes32",
              "name": "r",
              "type": "bytes32"
            },
            {
              "internalType": "bytes32",
              "name": "s",
              "type": "bytes32"
            }
          ],
          "internalType": "struct PaymentSettlement.Signature",
          "name": "_signature",
          "type": "tuple"
        },
        {
          "internalType": "address",
          "name": "_feeToken",
          "type": "address"
        },
        {
          "internalType": "uint256",
          "name": "_fee",
          "type": "uint256"
        }
      ],
      "name": "verifyDataReverting",
      "outputs": [],
      "stateMutability": "nonpayable",
      "type": "function"
    },
    {
      "inputs": [
        {
          "components": [
            {
              "internalType": "address",
              "name": "token",
              "type": "address"
            },
            {
              "internalType": "address",
              "name": "from",
              "type": "address"
            },
            {
              "internalType": "address",
              "name": "to",
              "type": "address"
            },
            {
              "internalType": "uint256",
              "name": "amount",
              "type": "uint256"
            },
            {
              "components": [
                {
                  "internalType": "uint256",
                  "name": "deadline",
                  "type": "uint256"
                },
                {
                  "components": [
                    {
                      "internalType": "uint8",
                      "name": "v",
                      "type": "uint8"
                    },
                    {
                      "internalType": "bytes32",
                      "name": "r",
                      "type": "bytes32"
                    },
                    {
                      "internalType": "bytes32",
                      "name": "s",
                      "type": "bytes32"
                    }
                  ],
                  "internalType": "struct PaymentSettlement.Signature",
                  "name": "signature",
                  "type": "tuple"
                }
              ],
              "internalType": "struct PaymentSettlement.PermitData",
              "name": "permitData",
              "type": "tuple"
            }
          ],
          "internalType": "struct PaymentSettlement.PaymentData",
          "name": "_paymentData",
          "type": "tuple"
        },
        {
          "components": [
            {
              "internalType": "uint8",
              "name": "v",
              "type": "uint8"
            },
            {
              "internalType": "bytes32",
              "name": "r",
              "type": "bytes32"
            },
            {
              "internalType": "bytes32",
              "name": "s",
              "type": "bytes32"
            }
          ],
          "internalType": "struct PaymentSettlement.Signature",
          "name": "_signature",
          "type": "tuple"
        }
      ],
      "name": "verifySignature",
      "outputs": [
        {
          "internalType": "bool",
          "name": "",
          "type": "bool"
        }
      ],
      "stateMutability": "view",
      "type": "function"
    },
    {
      "inputs": [],
      "name": "weth",
      "outputs": [
        {
          "internalType": "contract IWETH",
          "name": "",
          "type": "address"
        }
      ],
      "stateMutability": "view",
      "type": "function"
    },
    {
      "stateMutability": "payable",
      "type": "receive"
    }
  ],
  "transactionHash": "0xd270876509cd7cfb4c270754f8c630512f3c9d456a64b6345bd927301bc5b892",
  "args": [
    "0xba09E75749973Ce095121dfc02ec8D8364eE1AC9",
    "0xfFf9976782d46CC05630D1f6eBAb18b2324d6B14"
  ],
  "numDeployments": 1,
  "solcInputHash": "d2319b381f02ae1b3b2a6f3600b7b5b2",
  "bytecode": "0x6101a06040523480156200001257600080fd5b50604051620047a0380380620047a08339818101604052810190620000389190620004aa565b81816040518060400160405280601181526020017f5061796d656e74536574746c656d656e740000000000000000000000000000008152506040518060400160405280600181526020017f3100000000000000000000000000000000000000000000000000000000000000815250620000bc6000836200024660201b90919060201c565b6101208181525050620000da6001826200024660201b90919060201c565b6101408181525050818051906020012060e08181525050808051906020012061010081815250504660a08181525050620001196200029e60201b60201c565b608081815250503073ffffffffffffffffffffffffffffffffffffffff1660c08173ffffffffffffffffffffffffffffffffffffffff16815250505050620001766200016a620002fb60201b60201c565b6200030360201b60201c565b6000600260146101000a81548160ff0219169083151502179055508173ffffffffffffffffffffffffffffffffffffffff166101608173ffffffffffffffffffffffffffffffffffffffff16815250508073ffffffffffffffffffffffffffffffffffffffff166101808173ffffffffffffffffffffffffffffffffffffffff1681525050505081600460006101000a81548173ffffffffffffffffffffffffffffffffffffffff021916908373ffffffffffffffffffffffffffffffffffffffff160217905550505062000a55565b60006020835110156200026c576200026483620003c960201b60201c565b905062000298565b826200027e836200043660201b60201c565b60000190816200028f91906200076b565b5060ff60001b90505b92915050565b60007f8b73c3c69bb8fe3d512ecc4cf759cc79239f7b179b0ffacaa9a75d522b39400f60e051610100514630604051602001620002e0959493929190620008a3565b60405160208183030381529060405280519060200120905090565b600033905090565b6000600260009054906101000a900473ffffffffffffffffffffffffffffffffffffffff16905081600260006101000a81548173ffffffffffffffffffffffffffffffffffffffff021916908373ffffffffffffffffffffffffffffffffffffffff1602179055508173ffffffffffffffffffffffffffffffffffffffff168173ffffffffffffffffffffffffffffffffffffffff167f8be0079c531659141344cd1fd0a4f28419497f9722a3daafe3b4186f6b6457e060405160405180910390a35050565b600080829050601f815111156200041957826040517f305a27a90000000000000000000000000000000000000000000000000000000081526004016200041091906200098f565b60405180910390fd5b8051816200042790620009e5565b60001c1760001b915050919050565b6000819050919050565b600080fd5b600073ffffffffffffffffffffffffffffffffffffffff82169050919050565b6000620004728262000445565b9050919050565b620004848162000465565b81146200049057600080fd5b50565b600081519050620004a48162000479565b92915050565b60008060408385031215620004c457620004c362000440565b5b6000620004d48582860162000493565b9250506020620004e78582860162000493565b9150509250929050565b600081519050919050565b7f4e487b7100000000000000000000000000000000000000000000000000000000600052604160045260246000fd5b7f4e487b7100000000000000000000000000000000000000000000000000000000600052602260045260246000fd5b600060028204905060018216806200057357607f821691505b6020821081036200058957620005886200052b565b5b50919050565b60008190508160005260206000209050919050565b60006020601f8301049050919050565b600082821b905092915050565b600060088302620005f37fffffffffffffffffffffffffffffffffffffffffffffffffffffffffffffffff82620005b4565b620005ff8683620005b4565b95508019841693508086168417925050509392505050565b6000819050919050565b6000819050919050565b60006200064c62000646620006408462000617565b62000621565b62000617565b9050919050565b6000819050919050565b62000668836200062b565b62000680620006778262000653565b848454620005c1565b825550505050565b600090565b6200069762000688565b620006a48184846200065d565b505050565b5b81811015620006cc57620006c06000826200068d565b600181019050620006aa565b5050565b601f8211156200071b57620006e5816200058f565b620006f084620005a4565b8101602085101562000700578190505b620007186200070f85620005a4565b830182620006a9565b50505b505050565b600082821c905092915050565b6000620007406000198460080262000720565b1980831691505092915050565b60006200075b83836200072d565b9150826002028217905092915050565b6200077682620004f1565b67ffffffffffffffff811115620007925762000791620004fc565b5b6200079e82546200055a565b620007ab828285620006d0565b600060209050601f831160018114620007e35760008415620007ce578287015190505b620007da85826200074d565b8655506200084a565b601f198416620007f3866200058f565b60005b828110156200081d57848901518255600182019150602085019450602081019050620007f6565b868310156200083d578489015162000839601f8916826200072d565b8355505b6001600288020188555050505b505050505050565b6000819050919050565b620008678162000852565b82525050565b620008788162000617565b82525050565b60006200088b8262000445565b9050919050565b6200089d816200087e565b82525050565b600060a082019050620008ba60008301886200085c565b620008c960208301876200085c565b620008d860408301866200085c565b620008e760608301856200086d565b620008f6608083018462000892565b9695505050505050565b600082825260208201905092915050565b60005b838110156200093157808201518184015260208101905062000914565b60008484015250505050565b6000601f19601f8301169050919050565b60006200095b82620004f1565b62000967818562000900565b93506200097981856020860162000911565b62000984816200093d565b840191505092915050565b60006020820190508181036000830152620009ab81846200094e565b905092915050565b600081519050919050565b6000819050602082019050919050565b6000620009dc825162000852565b80915050919050565b6000620009f282620009b3565b82620009fe84620009be565b905062000a0b81620009ce565b9250602082101562000a4e5762000a497fffffffffffffffffffffffffffffffffffffffffffffffffffffffffffffffff83602003600802620005b4565b831692505b5050919050565b60805160a05160c05160e0516101005161012051610140516101605161018051613cc862000ad8600039600081816101090152818161048c0152818161152d01526117b5015260005050600061060c015260006105d801526000611e8101526000611e60015260006119cd01526000611a2301526000611a4c0152613cc86000f3fe6080604052600436106101025760003560e01c80638456cb5911610095578063ab51a85d11610064578063ab51a85d14610388578063f16156ca146103b1578063f2fde38b146103da578063f3e9e6e814610403578063fa461e331461042e57610197565b80638456cb59146102d857806384b0196e146102ef5780638da5cb5b14610320578063a9af7e8a1461034b57610197565b80634fb2e45d116100d15780634fb2e45d146102445780635c975abb1461026d5780635ec2e59f14610298578063715018a6146102c157610197565b8063349f0adc1461019c5780633f4ba83a146101d95780633fc8cef3146101f0578063491a721c1461021b57610197565b36610197577f000000000000000000000000000000000000000000000000000000000000000073ffffffffffffffffffffffffffffffffffffffff163373ffffffffffffffffffffffffffffffffffffffff1614610195576040517f08c379a000000000000000000000000000000000000000000000000000000000815260040161018c9061220c565b60405180910390fd5b005b600080fd5b3480156101a857600080fd5b506101c360048036038101906101be9190612284565b610457565b6040516101d091906122e1565b60405180910390f35b3480156101e557600080fd5b506101ee610470565b005b3480156101fc57600080fd5b5061020561048a565b604051610212919061237b565b60405180910390f35b34801561022757600080fd5b50610242600480360381019061023d91906123e6565b6104ae565b005b34801561025057600080fd5b5061026b6004803603810190610266919061243f565b6104f2565b005b34801561027957600080fd5b50610282610506565b60405161028f91906122e1565b60405180910390f35b3480156102a457600080fd5b506102bf60048036038101906102ba9190612284565b61051d565b005b3480156102cd57600080fd5b506102d6610597565b005b3480156102e457600080fd5b506102ed6105ab565b005b3480156102fb57600080fd5b506103046105c5565b6040516103179796959493929190612625565b60405180910390f35b34801561032c57600080fd5b506103356106c7565b60405161034291906126a9565b60405180910390f35b34801561035757600080fd5b50610372600480360381019061036d91906126f0565b6106f1565b60405161037f91906122e1565b60405180910390f35b34801561039457600080fd5b506103af60048036038101906103aa91906126f0565b610849565b005b3480156103bd57600080fd5b506103d860048036038101906103d391906126f0565b610890565b005b3480156103e657600080fd5b5061040160048036038101906103fc919061243f565b6108aa565b005b34801561040f57600080fd5b5061041861092d565b604051610425919061275b565b60405180910390f35b34801561043a57600080fd5b50610455600480360381019061045091906128e1565b610951565b005b6000806104648484610a80565b90508091505092915050565b610478610c0e565b610480610c8c565b610488610cd5565b565b7f000000000000000000000000000000000000000000000000000000000000000081565b80600460006101000a81548173ffffffffffffffffffffffffffffffffffffffff021916908373ffffffffffffffffffffffffffffffffffffffff16021790555050565b6104fa610c0e565b61050381610d38565b50565b6000600260149054906101000a900460ff16905090565b610525610dfe565b61052e33610e48565b61056d576040517f08c379a00000000000000000000000000000000000000000000000000000000081526004016105649061299c565b60405180910390fd5b6000610577610ef2565b90506000610583610f01565b905061059184848484610f10565b50505050565b61059f610c0e565b6105a96000610d38565b565b6105b3610c0e565b6105bb610dfe565b6105c3611220565b565b60006060806000806000606061060560007f000000000000000000000000000000000000000000000000000000000000000061128390919063ffffffff16565b61063960017f000000000000000000000000000000000000000000000000000000000000000061128390919063ffffffff16565b46306000801b600067ffffffffffffffff81111561065a576106596127b6565b5b6040519080825280602002602001820160405280156106885781602001602082028036833780820191505090505b507f0f00000000000000000000000000000000000000000000000000000000000000959493929190965096509650965096509650965090919293949596565b6000600260009054906101000a900473ffffffffffffffffffffffffffffffffffffffff16905090565b60006106fb610dfe565b3073ffffffffffffffffffffffffffffffffffffffff1663ab51a85d868686866040518563ffffffff1660e01b815260040161073a9493929190612c44565b600060405180830381600087803b15801561075457600080fd5b505af1925050508015610765575060015b61080157610771612c9a565b806308c379a0036107f15750610785612cbc565b8061079057506107f3565b60405160200161079f90612dc9565b60405160208183030381529060405280519060200120816040516020016107c69190612e0f565b60405160208183030381529060405280519060200120146107eb576000915050610841565b506107fc565b505b60009050610841565b61083c565b6040517f08c379a000000000000000000000000000000000000000000000000000000000815260040161083390612e98565b60405180910390fd5b600190505b949350505050565b61085584848484610f10565b6040517f08c379a000000000000000000000000000000000000000000000000000000000815260040161088790612edb565b60405180910390fd5b610898610dfe565b6108a484848484610f10565b50505050565b6108b2610c0e565b600073ffffffffffffffffffffffffffffffffffffffff168173ffffffffffffffffffffffffffffffffffffffff1603610921576040517f08c379a000000000000000000000000000000000000000000000000000000000815260040161091890612f6d565b60405180910390fd5b61092a81610d38565b50565b7f667a8c7f09938d651a2ceb2108bc4cb5496e13b27b76c54d6ef988cede5ae59581565b600360009054906101000a900473ffffffffffffffffffffffffffffffffffffffff1673ffffffffffffffffffffffffffffffffffffffff163373ffffffffffffffffffffffffffffffffffffffff16146109e1576040517f08c379a00000000000000000000000000000000000000000000000000000000081526004016109d890612fff565b60405180910390fd5b6000818060200190518101906109f7919061305d565b90506000808413610a085784610a0a565b835b9050610a3733828473ffffffffffffffffffffffffffffffffffffffff166113339092919063ffffffff16565b50506000600360006101000a81548173ffffffffffffffffffffffffffffffffffffffff021916908373ffffffffffffffffffffffffffffffffffffffff160217905550505050565b600080836000016020810190610a96919061243f565b73ffffffffffffffffffffffffffffffffffffffff16637ecebe00856020016020810190610ac4919061243f565b6040518263ffffffff1660e01b8152600401610ae091906126a9565b602060405180830381865afa158015610afd573d6000803e3d6000fd5b505050506040513d601f19601f82011682018060405250810190610b21919061309f565b905060007f667a8c7f09938d651a2ceb2108bc4cb5496e13b27b76c54d6ef988cede5ae595856040016020810190610b59919061243f565b83604051602001610b6c939291906130cc565b6040516020818303038152906040528051906020012090506000610b8f826113b9565b90506000610bb982876000016020810190610baa9190613103565b886020013589604001356113d3565b90506000876020016020810190610bd0919061243f565b73ffffffffffffffffffffffffffffffffffffffff168273ffffffffffffffffffffffffffffffffffffffff16149050809550505050505092915050565b610c166113fe565b73ffffffffffffffffffffffffffffffffffffffff16610c346106c7565b73ffffffffffffffffffffffffffffffffffffffff1614610c8a576040517f08c379a0000000000000000000000000000000000000000000000000000000008152600401610c819061317c565b60405180910390fd5b565b610c94610506565b610cd3576040517f08c379a0000000000000000000000000000000000000000000000000000000008152600401610cca906131e8565b60405180910390fd5b565b610cdd610c8c565b6000600260146101000a81548160ff0219169083151502179055507f5db9ee0a495bf2e6ff9c91a7834c1ba4fdd244a5e8aa4e537bd38aeae4b073aa610d216113fe565b604051610d2e91906126a9565b60405180910390a1565b6000600260009054906101000a900473ffffffffffffffffffffffffffffffffffffffff16905081600260006101000a81548173ffffffffffffffffffffffffffffffffffffffff021916908373ffffffffffffffffffffffffffffffffffffffff1602179055508173ffffffffffffffffffffffffffffffffffffffff168173ffffffffffffffffffffffffffffffffffffffff167f8be0079c531659141344cd1fd0a4f28419497f9722a3daafe3b4186f6b6457e060405160405180910390a35050565b610e06610506565b15610e46576040517f08c379a0000000000000000000000000000000000000000000000000000000008152600401610e3d90613254565b60405180910390fd5b565b6000610144461480610e5b575061011846145b610ea75773abcc9b596420a9e9172fd5938620e265a0f9df9273ffffffffffffffffffffffffffffffffffffffff168273ffffffffffffffffffffffffffffffffffffffff1614610eeb565b73b16a1dbe755f992636705fdbb3a8678a657eb3ea73ffffffffffffffffffffffffffffffffffffffff168273ffffffffffffffffffffffffffffffffffffffff16145b9050919050565b6000610efc611406565b905090565b6000610f0b611415565b905090565b610f1a8484610a80565b610f59576040517f08c379a0000000000000000000000000000000000000000000000000000000008152600401610f50906132e6565b60405180910390fd5b836000016020810190610f6c919061243f565b73ffffffffffffffffffffffffffffffffffffffff1663d505accf856020016020810190610f9a919061243f565b3087606001358860800160000135896080016020016000016020810190610fc19190613103565b8a608001602001602001358b608001602001604001356040518863ffffffff1660e01b8152600401610ff99796959493929190613315565b600060405180830381600087803b15801561101357600080fd5b505af1158015611027573d6000803e3d6000fd5b50505050611080846020016020810190611041919061243f565b30866060013587600001602081019061105a919061243f565b73ffffffffffffffffffffffffffffffffffffffff16611421909392919063ffffffff16565b6110a2846000016020810190611096919061243f565b856060013584846114aa565b6110aa61184b565b6111648460000160208101906110c0919061243f565b8560400160208101906110d3919061243f565b8660000160208101906110e6919061243f565b73ffffffffffffffffffffffffffffffffffffffff166370a08231306040518263ffffffff1660e01b815260040161111e91906126a9565b602060405180830381865afa15801561113b573d6000803e3d6000fd5b505050506040513d601f19601f8201168201806040525081019061115f919061309f565b611333565b836040016020810190611177919061243f565b73ffffffffffffffffffffffffffffffffffffffff168460200160208101906111a0919061243f565b73ffffffffffffffffffffffffffffffffffffffff168560000160208101906111c9919061243f565b73ffffffffffffffffffffffffffffffffffffffff167f0913aa4718e76655dbdbde41862a88aba8459d8721849484c97f53af3b5028e687606001356040516112129190613384565b60405180910390a450505050565b611228610dfe565b6001600260146101000a81548160ff0219169083151502179055507f62e78cea01bee320cd4e420270b5ea74000d11b0c9f74754ebdbfc544b05a25861126c6113fe565b60405161127991906126a9565b60405180910390a1565b606060ff60001b83146112a0576112998361188d565b905061132d565b8180546112ac906133ce565b80601f01602080910402602001604051908101604052809291908181526020018280546112d8906133ce565b80156113255780601f106112fa57610100808354040283529160200191611325565b820191906000526020600020905b81548152906001019060200180831161130857829003601f168201915b505050505090505b92915050565b6113b48363a9059cbb60e01b84846040516024016113529291906133ff565b604051602081830303815290604052907bffffffffffffffffffffffffffffffffffffffffffffffffffffffff19166020820180517bffffffffffffffffffffffffffffffffffffffffffffffffffffffff8381831617835250505050611901565b505050565b60006113cc6113c66119c9565b83611a80565b9050919050565b60008060006113e487878787611ac1565b915091506113f181611ba3565b8192505050949350505050565b600033905090565b6000603436033560601c905090565b60006020360335905090565b6114a4846323b872dd60e01b85858560405160240161144293929190613428565b604051602081830303815290604052907bffffffffffffffffffffffffffffffffffffffffffffffffffffffff19166020820180517bffffffffffffffffffffffffffffffffffffffffffffffffffffffff8381831617835250505050611901565b50505050565b8373ffffffffffffffffffffffffffffffffffffffff168273ffffffffffffffffffffffffffffffffffffffff16031561184557600073eeeeeeeeeeeeeeeeeeeeeeeeeeeeeeeeeeeeeeee73ffffffffffffffffffffffffffffffffffffffff168373ffffffffffffffffffffffffffffffffffffffff16149050801561154f577f000000000000000000000000000000000000000000000000000000000000000092505b6000611559611d09565b90508573ffffffffffffffffffffffffffffffffffffffff1663095ea7b382876040518363ffffffff1660e01b81526004016115969291906133ff565b6020604051808303816000875af11580156115b5573d6000803e3d6000fd5b505050506040513d601f19601f820116820180604052508101906115d9919061348b565b5060008673ffffffffffffffffffffffffffffffffffffffff168273ffffffffffffffffffffffffffffffffffffffff16630dfe16816040518163ffffffff1660e01b8152600401602060405180830381865afa15801561163e573d6000803e3d6000fd5b505050506040513d601f19601f8201168201806040525081019061166291906134cd565b73ffffffffffffffffffffffffffffffffffffffff1614905060008461168790613529565b9050600083600360006101000a81548173ffffffffffffffffffffffffffffffffffffffff021916908373ffffffffffffffffffffffffffffffffffffffff1602179055508373ffffffffffffffffffffffffffffffffffffffff1663128acb083085858761171657600173fffd8963efd1fc6a506488495d951d5263988d266117119190613571565b611729565b60016401000276a361172891906135b9565b5b8e60405160200161173a91906126a9565b6040516020818303038152906040526040518663ffffffff1660e01b8152600401611769959493929190613674565b60408051808303816000875af1158015611787573d6000803e3d6000fd5b505050506040513d601f19601f820116820180604052508101906117ab91906136e3565b5050841561183f577f000000000000000000000000000000000000000000000000000000000000000073ffffffffffffffffffffffffffffffffffffffff16632e1a7d4d876040518263ffffffff1660e01b815260040161180c9190613384565b600060405180830381600087803b15801561182657600080fd5b505af115801561183a573d6000803e3d6000fd5b505050505b50505050505b50505050565b61188b611856611d33565b61185e610f01565b611866610ef2565b73ffffffffffffffffffffffffffffffffffffffff16611d429092919063ffffffff16565b565b6060600061189a83611dd3565b90506000602067ffffffffffffffff8111156118b9576118b86127b6565b5b6040519080825280601f01601f1916602001820160405280156118eb5781602001600182028036833780820191505090505b5090508181528360208201528092505050919050565b6000611963826040518060400160405280602081526020017f5361666545524332303a206c6f772d6c6576656c2063616c6c206661696c65648152508573ffffffffffffffffffffffffffffffffffffffff16611e239092919063ffffffff16565b9050600081511480611985575080806020019051810190611984919061348b565b5b6119c4576040517f08c379a00000000000000000000000000000000000000000000000000000000081526004016119bb90613795565b60405180910390fd5b505050565b60007f000000000000000000000000000000000000000000000000000000000000000073ffffffffffffffffffffffffffffffffffffffff163073ffffffffffffffffffffffffffffffffffffffff16148015611a4557507f000000000000000000000000000000000000000000000000000000000000000046145b15611a72577f00000000000000000000000000000000000000000000000000000000000000009050611a7d565b611a7a611e3b565b90505b90565b60006040517f190100000000000000000000000000000000000000000000000000000000000081528360028201528260228201526042812091505092915050565b6000807f7fffffffffffffffffffffffffffffff5d576e7357a4501ddfe92f46681b20a08360001c1115611afc576000600391509150611b9a565b600060018787878760405160008152602001604052604051611b2194939291906137b5565b6020604051602081039080840390855afa158015611b43573d6000803e3d6000fd5b505050602060405103519050600073ffffffffffffffffffffffffffffffffffffffff168173ffffffffffffffffffffffffffffffffffffffff1603611b9157600060019250925050611b9a565b80600092509250505b94509492505050565b60006004811115611bb757611bb66137fa565b5b816004811115611bca57611bc96137fa565b5b0315611d065760016004811115611be457611be36137fa565b5b816004811115611bf757611bf66137fa565b5b03611c37576040517f08c379a0000000000000000000000000000000000000000000000000000000008152600401611c2e90613875565b60405180910390fd5b60026004811115611c4b57611c4a6137fa565b5b816004811115611c5e57611c5d6137fa565b5b03611c9e576040517f08c379a0000000000000000000000000000000000000000000000000000000008152600401611c95906138e1565b60405180910390fd5b60036004811115611cb257611cb16137fa565b5b816004811115611cc557611cc46137fa565b5b03611d05576040517f08c379a0000000000000000000000000000000000000000000000000000000008152600401611cfc90613973565b60405180910390fd5b5b50565b6000600460009054906101000a900473ffffffffffffffffffffffffffffffffffffffff16905090565b6000611d3d611ed1565b905090565b6000810315611dce5773eeeeeeeeeeeeeeeeeeeeeeeeeeeeeeeeeeeeeeee73ffffffffffffffffffffffffffffffffffffffff168373ffffffffffffffffffffffffffffffffffffffff1614611dc257611dbd82828573ffffffffffffffffffffffffffffffffffffffff166113339092919063ffffffff16565b611dcd565b611dcc8282611ee0565b5b5b505050565b60008060ff8360001c169050601f811115611e1a576040517fb3512b0c00000000000000000000000000000000000000000000000000000000815260040160405180910390fd5b80915050919050565b6060611e328484600085611fd4565b90509392505050565b60007f8b73c3c69bb8fe3d512ecc4cf759cc79239f7b179b0ffacaa9a75d522b39400f7f00000000000000000000000000000000000000000000000000000000000000007f00000000000000000000000000000000000000000000000000000000000000004630604051602001611eb6959493929190613993565b60405160208183030381529060405280519060200120905090565b6000604836033560601c905090565b80471015611f23576040517f08c379a0000000000000000000000000000000000000000000000000000000008152600401611f1a90613a32565b60405180910390fd5b60008273ffffffffffffffffffffffffffffffffffffffff1682604051611f4990613a83565b60006040518083038185875af1925050503d8060008114611f86576040519150601f19603f3d011682016040523d82523d6000602084013e611f8b565b606091505b5050905080611fcf576040517f08c379a0000000000000000000000000000000000000000000000000000000008152600401611fc690613b0a565b60405180910390fd5b505050565b606082471015612019576040517f08c379a000000000000000000000000000000000000000000000000000000000815260040161201090613b9c565b60405180910390fd5b6000808673ffffffffffffffffffffffffffffffffffffffff1685876040516120429190613bed565b60006040518083038185875af1925050503d806000811461207f576040519150601f19603f3d011682016040523d82523d6000602084013e612084565b606091505b5091509150612095878383876120a1565b92505050949350505050565b606083156121035760008351036120fb576120bb85612116565b6120fa576040517f08c379a00000000000000000000000000000000000000000000000000000000081526004016120f190613c50565b60405180910390fd5b5b82905061210e565b61210d8383612139565b5b949350505050565b6000808273ffffffffffffffffffffffffffffffffffffffff163b119050919050565b60008251111561214c5781518083602001fd5b806040517f08c379a00000000000000000000000000000000000000000000000000000000081526004016121809190613c70565b60405180910390fd5b600082825260208201905092915050565b7f5061796d656e74536574746c656d656e743a20696e76616c6964206d73672e7360008201527f656e646572000000000000000000000000000000000000000000000000000000602082015250565b60006121f6602583612189565b91506122018261219a565b604082019050919050565b60006020820190508181036000830152612225816121e9565b9050919050565b6000604051905090565b600080fd5b600080fd5b600080fd5b6000610100828403121561225c5761225b612240565b5b81905092915050565b60006060828403121561227b5761227a612240565b5b81905092915050565b600080610160838503121561229c5761229b612236565b5b60006122aa85828601612245565b9250506101006122bc85828601612265565b9150509250929050565b60008115159050919050565b6122db816122c6565b82525050565b60006020820190506122f660008301846122d2565b92915050565b600073ffffffffffffffffffffffffffffffffffffffff82169050919050565b6000819050919050565b600061234161233c612337846122fc565b61231c565b6122fc565b9050919050565b600061235382612326565b9050919050565b600061236582612348565b9050919050565b6123758161235a565b82525050565b6000602082019050612390600083018461236c565b92915050565b60006123a1826122fc565b9050919050565b60006123b382612396565b9050919050565b6123c3816123a8565b81146123ce57600080fd5b50565b6000813590506123e0816123ba565b92915050565b6000602082840312156123fc576123fb612236565b5b600061240a848285016123d1565b91505092915050565b61241c81612396565b811461242757600080fd5b50565b60008135905061243981612413565b92915050565b60006020828403121561245557612454612236565b5b60006124638482850161242a565b91505092915050565b60007fff0000000000000000000000000000000000000000000000000000000000000082169050919050565b6124a18161246c565b82525050565b600081519050919050565b60005b838110156124d05780820151818401526020810190506124b5565b60008484015250505050565b6000601f19601f8301169050919050565b60006124f8826124a7565b6125028185612189565b93506125128185602086016124b2565b61251b816124dc565b840191505092915050565b6000819050919050565b61253981612526565b82525050565b61254881612396565b82525050565b6000819050919050565b6125618161254e565b82525050565b600081519050919050565b600082825260208201905092915050565b6000819050602082019050919050565b61259c81612526565b82525050565b60006125ae8383612593565b60208301905092915050565b6000602082019050919050565b60006125d282612567565b6125dc8185612572565b93506125e783612583565b8060005b838110156126185781516125ff88826125a2565b975061260a836125ba565b9250506001810190506125eb565b5085935050505092915050565b600060e08201905061263a600083018a612498565b818103602083015261264c81896124ed565b9050818103604083015261266081886124ed565b905061266f6060830187612530565b61267c608083018661253f565b61268960a0830185612558565b81810360c083015261269b81846125c7565b905098975050505050505050565b60006020820190506126be600083018461253f565b92915050565b6126cd81612526565b81146126d857600080fd5b50565b6000813590506126ea816126c4565b92915050565b6000806000806101a0858703121561270b5761270a612236565b5b600061271987828801612245565b94505061010061272b87828801612265565b93505061016061273d8782880161242a565b92505061018061274f878288016126db565b91505092959194509250565b60006020820190506127706000830184612558565b92915050565b6000819050919050565b61278981612776565b811461279457600080fd5b50565b6000813590506127a681612780565b92915050565b600080fd5b600080fd5b7f4e487b7100000000000000000000000000000000000000000000000000000000600052604160045260246000fd5b6127ee826124dc565b810181811067ffffffffffffffff8211171561280d5761280c6127b6565b5b80604052505050565b600061282061222c565b905061282c82826127e5565b919050565b600067ffffffffffffffff82111561284c5761284b6127b6565b5b612855826124dc565b9050602081019050919050565b82818337600083830152505050565b600061288461287f84612831565b612816565b9050828152602081018484840111156128a05761289f6127b1565b5b6128ab848285612862565b509392505050565b600082601f8301126128c8576128c76127ac565b5b81356128d8848260208601612871565b91505092915050565b6000806000606084860312156128fa576128f9612236565b5b600061290886828701612797565b935050602061291986828701612797565b925050604084013567ffffffffffffffff81111561293a5761293961223b565b5b612946868287016128b3565b9150509250925092565b7f6f6e6c7947656c61746f52656c61790000000000000000000000000000000000600082015250565b6000612986600f83612189565b915061299182612950565b602082019050919050565b600060208201905081810360008301526129b581612979565b9050919050565b60006129cb602084018461242a565b905092915050565b6129dc81612396565b82525050565b60006129f160208401846126db565b905092915050565b600082905092915050565b600082905092915050565b600060ff82169050919050565b612a2581612a0f565b8114612a3057600080fd5b50565b600081359050612a4281612a1c565b92915050565b6000612a576020840184612a33565b905092915050565b612a6881612a0f565b82525050565b612a778161254e565b8114612a8257600080fd5b50565b600081359050612a9481612a6e565b92915050565b6000612aa96020840184612a85565b905092915050565b612aba8161254e565b82525050565b60608201612ad16000830183612a48565b612ade6000850182612a5f565b50612aec6020830183612a9a565b612af96020850182612ab1565b50612b076040830183612a9a565b612b146040850182612ab1565b50505050565b60808201612b2b60008301836129e2565b612b386000850182612593565b50612b466020830183612a04565b612b536020850182612ac0565b50505050565b6101008201612b6b60008301836129bc565b612b7860008501826129d3565b50612b8660208301836129bc565b612b9360208501826129d3565b50612ba160408301836129bc565b612bae60408501826129d3565b50612bbc60608301836129e2565b612bc96060850182612593565b50612bd760808301836129f9565b612be46080850182612b1a565b50505050565b60608201612bfb6000830183612a48565b612c086000850182612a5f565b50612c166020830183612a9a565b612c236020850182612ab1565b50612c316040830183612a9a565b612c3e6040850182612ab1565b50505050565b60006101a082019050612c5a6000830187612b59565b612c68610100830186612bea565b612c7661016083018561253f565b612c84610180830184612530565b95945050505050565b60008160e01c9050919050565b600060033d1115612cb95760046000803e612cb6600051612c8d565b90505b90565b600060443d10612d4957612cce61222c565b60043d036004823e80513d602482011167ffffffffffffffff82111715612cf6575050612d49565b808201805167ffffffffffffffff811115612d145750505050612d49565b80602083010160043d038501811115612d31575050505050612d49565b612d40826020018501866127e5565b82955050505050505b90565b600081905092915050565b7f5061796d656e74536574746c656d656e743a20766572696669636174696f6e2060008201527f636f6d706c657465000000000000000000000000000000000000000000000000602082015250565b6000612db3602883612d4c565b9150612dbe82612d57565b602882019050919050565b6000612dd482612da6565b9150819050919050565b6000612de9826124a7565b612df38185612d4c565b9350612e038185602086016124b2565b80840191505092915050565b6000612e1b8284612dde565b915081905092915050565b7f5061796d656e74536574746c656d656e743a207665726966794461746152657660008201527f657274696e6720646964206e6f74207265766572740000000000000000000000602082015250565b6000612e82603583612189565b9150612e8d82612e26565b604082019050919050565b60006020820190508181036000830152612eb181612e75565b9050919050565b6000612ec5602883612189565b9150612ed082612d57565b604082019050919050565b60006020820190508181036000830152612ef481612eb8565b9050919050565b7f4f776e61626c653a206e6577206f776e657220697320746865207a65726f206160008201527f6464726573730000000000000000000000000000000000000000000000000000602082015250565b6000612f57602683612189565b9150612f6282612efb565b604082019050919050565b60006020820190508181036000830152612f8681612f4a565b9050919050565b7f41756374696f6e426f743a206d73672e73656e64657220213d20616c6c6f776560008201527f6443616c6c6261636b0000000000000000000000000000000000000000000000602082015250565b6000612fe9602983612189565b9150612ff482612f8d565b604082019050919050565b6000602082019050818103600083015261301881612fdc565b9050919050565b600061302a826122fc565b9050919050565b61303a8161301f565b811461304557600080fd5b50565b60008151905061305781613031565b92915050565b60006020828403121561307357613072612236565b5b600061308184828501613048565b91505092915050565b600081519050613099816126c4565b92915050565b6000602082840312156130b5576130b4612236565b5b60006130c38482850161308a565b91505092915050565b60006060820190506130e16000830186612558565b6130ee602083018561253f565b6130fb6040830184612530565b949350505050565b60006020828403121561311957613118612236565b5b600061312784828501612a33565b91505092915050565b7f4f776e61626c653a2063616c6c6572206973206e6f7420746865206f776e6572600082015250565b6000613166602083612189565b915061317182613130565b602082019050919050565b6000602082019050818103600083015261319581613159565b9050919050565b7f5061757361626c653a206e6f7420706175736564000000000000000000000000600082015250565b60006131d2601483612189565b91506131dd8261319c565b602082019050919050565b60006020820190508181036000830152613201816131c5565b9050919050565b7f5061757361626c653a2070617573656400000000000000000000000000000000600082015250565b600061323e601083612189565b915061324982613208565b602082019050919050565b6000602082019050818103600083015261326d81613231565b9050919050565b7f5061796d656e74536574746c656d656e743a20696e76616c6964207369676e6160008201527f7475726500000000000000000000000000000000000000000000000000000000602082015250565b60006132d0602483612189565b91506132db82613274565b604082019050919050565b600060208201905081810360008301526132ff816132c3565b9050919050565b61330f81612a0f565b82525050565b600060e08201905061332a600083018a61253f565b613337602083018961253f565b6133446040830188612530565b6133516060830187612530565b61335e6080830186613306565b61336b60a0830185612558565b61337860c0830184612558565b98975050505050505050565b60006020820190506133996000830184612530565b92915050565b7f4e487b7100000000000000000000000000000000000000000000000000000000600052602260045260246000fd5b600060028204905060018216806133e657607f821691505b6020821081036133f9576133f861339f565b5b50919050565b6000604082019050613414600083018561253f565b6134216020830184612530565b9392505050565b600060608201905061343d600083018661253f565b61344a602083018561253f565b6134576040830184612530565b949350505050565b613468816122c6565b811461347357600080fd5b50565b6000815190506134858161345f565b92915050565b6000602082840312156134a1576134a0612236565b5b60006134af84828501613476565b91505092915050565b6000815190506134c781612413565b92915050565b6000602082840312156134e3576134e2612236565b5b60006134f1848285016134b8565b91505092915050565b7f4e487b7100000000000000000000000000000000000000000000000000000000600052601160045260246000fd5b600061353482612776565b91507f80000000000000000000000000000000000000000000000000000000000000008203613566576135656134fa565b5b816000039050919050565b600061357c826122fc565b9150613587836122fc565b9250828203905073ffffffffffffffffffffffffffffffffffffffff8111156135b3576135b26134fa565b5b92915050565b60006135c4826122fc565b91506135cf836122fc565b9250828201905073ffffffffffffffffffffffffffffffffffffffff8111156135fb576135fa6134fa565b5b92915050565b61360a81612776565b82525050565b613619816122fc565b82525050565b600081519050919050565b600082825260208201905092915050565b60006136468261361f565b613650818561362a565b93506136608185602086016124b2565b613669816124dc565b840191505092915050565b600060a082019050613689600083018861253f565b61369660208301876122d2565b6136a36040830186613601565b6136b06060830185613610565b81810360808301526136c2818461363b565b90509695505050505050565b6000815190506136dd81612780565b92915050565b600080604083850312156136fa576136f9612236565b5b6000613708858286016136ce565b9250506020613719858286016136ce565b9150509250929050565b7f5361666545524332303a204552433230206f7065726174696f6e20646964206e60008201527f6f74207375636365656400000000000000000000000000000000000000000000602082015250565b600061377f602a83612189565b915061378a82613723565b604082019050919050565b600060208201905081810360008301526137ae81613772565b9050919050565b60006080820190506137ca6000830187612558565b6137d76020830186613306565b6137e46040830185612558565b6137f16060830184612558565b95945050505050565b7f4e487b7100000000000000000000000000000000000000000000000000000000600052602160045260246000fd5b7f45434453413a20696e76616c6964207369676e61747572650000000000000000600082015250565b600061385f601883612189565b915061386a82613829565b602082019050919050565b6000602082019050818103600083015261388e81613852565b9050919050565b7f45434453413a20696e76616c6964207369676e6174757265206c656e67746800600082015250565b60006138cb601f83612189565b91506138d682613895565b602082019050919050565b600060208201905081810360008301526138fa816138be565b9050919050565b7f45434453413a20696e76616c6964207369676e6174757265202773272076616c60008201527f7565000000000000000000000000000000000000000000000000000000000000602082015250565b600061395d602283612189565b915061396882613901565b604082019050919050565b6000602082019050818103600083015261398c81613950565b9050919050565b600060a0820190506139a86000830188612558565b6139b56020830187612558565b6139c26040830186612558565b6139cf6060830185612530565b6139dc608083018461253f565b9695505050505050565b7f416464726573733a20696e73756666696369656e742062616c616e6365000000600082015250565b6000613a1c601d83612189565b9150613a27826139e6565b602082019050919050565b60006020820190508181036000830152613a4b81613a0f565b9050919050565b600081905092915050565b50565b6000613a6d600083613a52565b9150613a7882613a5d565b600082019050919050565b6000613a8e82613a60565b9150819050919050565b7f416464726573733a20756e61626c6520746f2073656e642076616c75652c207260008201527f6563697069656e74206d61792068617665207265766572746564000000000000602082015250565b6000613af4603a83612189565b9150613aff82613a98565b604082019050919050565b60006020820190508181036000830152613b2381613ae7565b9050919050565b7f416464726573733a20696e73756666696369656e742062616c616e636520666f60008201527f722063616c6c0000000000000000000000000000000000000000000000000000602082015250565b6000613b86602683612189565b9150613b9182613b2a565b604082019050919050565b60006020820190508181036000830152613bb581613b79565b9050919050565b6000613bc78261361f565b613bd18185613a52565b9350613be18185602086016124b2565b80840191505092915050565b6000613bf98284613bbc565b915081905092915050565b7f416464726573733a2063616c6c20746f206e6f6e2d636f6e7472616374000000600082015250565b6000613c3a601d83612189565b9150613c4582613c04565b602082019050919050565b60006020820190508181036000830152613c6981613c2d565b9050919050565b60006020820190508181036000830152613c8a81846124ed565b90509291505056fea26469706673582212202aaa3c9232b363675fd70839a472c284bc5ac475122ad445314eab74a8c36ad764736f6c63430008140033",
  "devdoc": {
    "events": {
      "EIP712DomainChanged()": {
        "details": "MAY be emitted to signal that the domain could have changed."
      },
      "Paused(address)": {
        "details": "Emitted when the pause is triggered by `account`."
      },
      "Unpaused(address)": {
        "details": "Emitted when the pause is lifted by `account`."
      }
    },
    "kind": "dev",
    "methods": {
      "eip712Domain()": {
        "details": "See {EIP-5267}. _Available since v4.9._"
      },
      "owner()": {
        "details": "Returns the address of the current owner."
      },
      "paused()": {
        "details": "Returns true if the contract is paused, and false otherwise."
      },
      "renounceOwnership()": {
        "details": "Leaves the contract without owner. It will not be possible to call `onlyOwner` functions. Can only be called by the current owner. NOTE: Renouncing ownership will leave the contract without an owner, thereby disabling any functionality that is only available to the owner."
      },
      "transferOwnership(address)": {
        "details": "Transfers ownership of the contract to a new account (`newOwner`). Can only be called by the current owner."
      }
    },
    "version": 1
  },
  "userdoc": {
    "kind": "user",
    "methods": {},
    "version": 1
  },
  "storageLayout": {
    "storage": [
      {
        "astId": 2397,
        "contract": "contracts/test/PaymentSettlementTestHarness.sol:PaymentSettlementTestHarness",
        "label": "_nameFallback",
        "offset": 0,
        "slot": "0",
        "type": "t_string_storage"
      },
      {
        "astId": 2399,
        "contract": "contracts/test/PaymentSettlementTestHarness.sol:PaymentSettlementTestHarness",
        "label": "_versionFallback",
        "offset": 0,
        "slot": "1",
        "type": "t_string_storage"
      },
      {
        "astId": 363,
        "contract": "contracts/test/PaymentSettlementTestHarness.sol:PaymentSettlementTestHarness",
        "label": "_owner",
        "offset": 0,
        "slot": "2",
        "type": "t_address"
      },
      {
        "astId": 511,
        "contract": "contracts/test/PaymentSettlementTestHarness.sol:PaymentSettlementTestHarness",
        "label": "_paused",
        "offset": 20,
        "slot": "2",
        "type": "t_bool"
      },
      {
        "astId": 3591,
        "contract": "contracts/test/PaymentSettlementTestHarness.sol:PaymentSettlementTestHarness",
        "label": "allowedCallback",
        "offset": 0,
        "slot": "3",
        "type": "t_address"
      },
      {
        "astId": 4683,
        "contract": "contracts/test/PaymentSettlementTestHarness.sol:PaymentSettlementTestHarness",
        "label": "uniV3PoolOverride",
        "offset": 0,
        "slot": "4",
        "type": "t_contract(IUniV3Pool)4567"
      }
    ],
    "types": {
      "t_address": {
        "encoding": "inplace",
        "label": "address",
        "numberOfBytes": "20"
      },
      "t_bool": {
        "encoding": "inplace",
        "label": "bool",
        "numberOfBytes": "1"
      },
      "t_contract(IUniV3Pool)4567": {
        "encoding": "inplace",
        "label": "contract IUniV3Pool",
        "numberOfBytes": "20"
      },
      "t_string_storage": {
        "encoding": "bytes",
        "label": "string",
        "numberOfBytes": "32"
      }
    }
  }
}