{
  "address": "0x8Ba177F784E8FBBdA087200DCF5d4D5e0814b95E",
  "abi": [
    {
      "inputs": [
        {
          "internalType": "address payable",
          "name": "_uniV3Router",
          "type": "address"
        },
        {
          "internalType": "address payable",
          "name": "_weth",
          "type": "address"
        }
      ],
      "stateMutability": "nonpayable",
      "type": "constructor"
    },
    {
      "inputs": [],
      "name": "InvalidShortString",
      "type": "error"
    },
    {
      "inputs": [
        {
          "internalType": "string",
          "name": "str",
          "type": "string"
        }
      ],
      "name": "StringTooLong",
      "type": "error"
    },
    {
      "anonymous": false,
      "inputs": [],
      "name": "EIP712DomainChanged",
      "type": "event"
    },
    {
      "anonymous": false,
      "inputs": [
        {
          "indexed": true,
          "internalType": "address",
          "name": "previousOwner",
          "type": "address"
        },
        {
          "indexed": true,
          "internalType": "address",
          "name": "newOwner",
          "type": "address"
        }
      ],
      "name": "OwnershipTransferred",
      "type": "event"
    },
    {
      "anonymous": false,
      "inputs": [
        {
          "indexed": false,
          "internalType": "address",
          "name": "account",
          "type": "address"
        }
      ],
      "name": "Paused",
      "type": "event"
    },
    {
      "anonymous": false,
      "inputs": [
        {
          "indexed": true,
          "internalType": "address",
          "name": "token",
          "type": "address"
        },
        {
          "indexed": true,
          "internalType": "address",
          "name": "from",
          "type": "address"
        },
        {
          "indexed": true,
          "internalType": "address",
          "name": "to",
          "type": "address"
        },
        {
          "indexed": false,
          "internalType": "uint256",
          "name": "amount",
          "type": "uint256"
        }
      ],
      "name": "Payment",
      "type": "event"
    },
    {
      "anonymous": false,
      "inputs": [
        {
          "indexed": false,
          "internalType": "address",
          "name": "account",
          "type": "address"
        }
      ],
      "name": "Unpaused",
      "type": "event"
    },
    {
      "inputs": [],
      "name": "PAY_TYPEHASH",
      "outputs": [
        {
          "internalType": "bytes32",
          "name": "",
          "type": "bytes32"
        }
      ],
      "stateMutability": "view",
      "type": "function"
    },
    {
      "inputs": [],
      "name": "eip712Domain",
      "outputs": [
        {
          "internalType": "bytes1",
          "name": "fields",
          "type": "bytes1"
        },
        {
          "internalType": "string",
          "name": "name",
          "type": "string"
        },
        {
          "internalType": "string",
          "name": "version",
          "type": "string"
        },
        {
          "internalType": "uint256",
          "name": "chainId",
          "type": "uint256"
        },
        {
          "internalType": "address",
          "name": "verifyingContract",
          "type": "address"
        },
        {
          "internalType": "bytes32",
          "name": "salt",
          "type": "bytes32"
        },
        {
          "internalType": "uint256[]",
          "name": "extensions",
          "type": "uint256[]"
        }
      ],
      "stateMutability": "view",
      "type": "function"
    },
    {
      "inputs": [],
      "name": "owner",
      "outputs": [
        {
          "internalType": "address",
          "name": "",
          "type": "address"
        }
      ],
      "stateMutability": "view",
      "type": "function"
    },
    {
      "inputs": [],
      "name": "pause",
      "outputs": [],
      "stateMutability": "nonpayable",
      "type": "function"
    },
    {
      "inputs": [],
      "name": "paused",
      "outputs": [
        {
          "internalType": "bool",
          "name": "",
          "type": "bool"
        }
      ],
      "stateMutability": "view",
      "type": "function"
    },
    {
      "inputs": [
        {
          "components": [
            {
              "internalType": "address",
              "name": "token",
              "type": "address"
            },
            {
              "internalType": "address",
              "name": "from",
              "type": "address"
            },
            {
              "internalType": "address",
              "name": "to",
              "type": "address"
            },
            {
              "internalType": "uint256",
              "name": "amount",
              "type": "uint256"
            },
            {
              "components": [
                {
                  "internalType": "uint256",
                  "name": "deadline",
                  "type": "uint256"
                },
                {
                  "components": [
                    {
                      "internalType": "uint8",
                      "name": "v",
                      "type": "uint8"
                    },
                    {
                      "internalType": "bytes32",
                      "name": "r",
                      "type": "bytes32"
                    },
                    {
                      "internalType": "bytes32",
                      "name": "s",
                      "type": "bytes32"
                    }
                  ],
                  "internalType": "struct PaymentSettlement.Signature",
                  "name": "signature",
                  "type": "tuple"
                }
              ],
              "internalType": "struct PaymentSettlement.PermitData",
              "name": "permitData",
              "type": "tuple"
            }
          ],
          "internalType": "struct PaymentSettlement.PaymentData",
          "name": "_paymentData",
          "type": "tuple"
        },
        {
          "components": [
            {
              "internalType": "uint8",
              "name": "v",
              "type": "uint8"
            },
            {
              "internalType": "bytes32",
              "name": "r",
              "type": "bytes32"
            },
            {
              "internalType": "bytes32",
              "name": "s",
              "type": "bytes32"
            }
          ],
          "internalType": "struct PaymentSettlement.Signature",
          "name": "_signature",
          "type": "tuple"
        }
      ],
      "name": "pay",
      "outputs": [],
      "stateMutability": "nonpayable",
      "type": "function"
    },
    {
      "inputs": [
        {
          "components": [
            {
              "internalType": "address",
              "name": "token",
              "type": "address"
            },
            {
              "internalType": "address",
              "name": "from",
              "type": "address"
            },
            {
              "internalType": "address",
              "name": "to",
              "type": "address"
            },
            {
              "internalType": "uint256",
              "name": "amount",
              "type": "uint256"
            },
            {
              "components": [
                {
                  "internalType": "uint256",
                  "name": "deadline",
                  "type": "uint256"
                },
                {
                  "components": [
                    {
                      "internalType": "uint8",
                      "name": "v",
                      "type": "uint8"
                    },
                    {
                      "internalType": "bytes32",
                      "name": "r",
                      "type": "bytes32"
                    },
                    {
                      "internalType": "bytes32",
                      "name": "s",
                      "type": "bytes32"
                    }
                  ],
                  "internalType": "struct PaymentSettlement.Signature",
                  "name": "signature",
                  "type": "tuple"
                }
              ],
              "internalType": "struct PaymentSettlement.PermitData",
              "name": "permitData",
              "type": "tuple"
            }
          ],
          "internalType": "struct PaymentSettlement.PaymentData",
          "name": "_paymentData",
          "type": "tuple"
        },
        {
          "components": [
            {
              "internalType": "uint8",
              "name": "v",
              "type": "uint8"
            },
            {
              "internalType": "bytes32",
              "name": "r",
              "type": "bytes32"
            },
            {
              "internalType": "bytes32",
              "name": "s",
              "type": "bytes32"
            }
          ],
          "internalType": "struct PaymentSettlement.Signature",
          "name": "_signature",
          "type": "tuple"
        },
        {
          "internalType": "address",
          "name": "_feeToken",
          "type": "address"
        },
        {
          "internalType": "uint256",
          "name": "_fee",
          "type": "uint256"
        }
      ],
      "name": "payTest",
      "outputs": [],
      "stateMutability": "nonpayable",
      "type": "function"
    },
    {
      "inputs": [],
      "name": "renounceOwnership",
      "outputs": [],
      "stateMutability": "nonpayable",
      "type": "function"
    },
    {
      "inputs": [
        {
          "internalType": "contract IUniV3Router",
          "name": "_newRouter",
          "type": "address"
        }
      ],
      "name": "setUniV3Router",
      "outputs": [],
      "stateMutability": "nonpayable",
      "type": "function"
    },
    {
      "inputs": [
        {
          "internalType": "address",
          "name": "_newOwner",
          "type": "address"
        }
      ],
      "name": "transferOwner",
      "outputs": [],
      "stateMutability": "nonpayable",
      "type": "function"
    },
    {
      "inputs": [
        {
          "internalType": "address",
          "name": "newOwner",
          "type": "address"
        }
      ],
      "name": "transferOwnership",
      "outputs": [],
      "stateMutability": "nonpayable",
      "type": "function"
    },
    {
      "inputs": [],
      "name": "unpause",
      "outputs": [],
      "stateMutability": "nonpayable",
      "type": "function"
    },
    {
      "inputs": [
        {
          "components": [
            {
              "internalType": "address",
              "name": "token",
              "type": "address"
            },
            {
              "internalType": "address",
              "name": "from",
              "type": "address"
            },
            {
              "internalType": "address",
              "name": "to",
              "type": "address"
            },
            {
              "internalType": "uint256",
              "name": "amount",
              "type": "uint256"
            },
            {
              "components": [
                {
                  "internalType": "uint256",
                  "name": "deadline",
                  "type": "uint256"
                },
                {
                  "components": [
                    {
                      "internalType": "uint8",
                      "name": "v",
                      "type": "uint8"
                    },
                    {
                      "internalType": "bytes32",
                      "name": "r",
                      "type": "bytes32"
                    },
                    {
                      "internalType": "bytes32",
                      "name": "s",
                      "type": "bytes32"
                    }
                  ],
                  "internalType": "struct PaymentSettlement.Signature",
                  "name": "signature",
                  "type": "tuple"
                }
              ],
              "internalType": "struct PaymentSettlement.PermitData",
              "name": "permitData",
              "type": "tuple"
            }
          ],
          "internalType": "struct PaymentSettlement.PaymentData",
          "name": "_paymentData",
          "type": "tuple"
        },
        {
          "components": [
            {
              "internalType": "uint8",
              "name": "v",
              "type": "uint8"
            },
            {
              "internalType": "bytes32",
              "name": "r",
              "type": "bytes32"
            },
            {
              "internalType": "bytes32",
              "name": "s",
              "type": "bytes32"
            }
          ],
          "internalType": "struct PaymentSettlement.Signature",
          "name": "_signature",
          "type": "tuple"
        },
        {
          "internalType": "address",
          "name": "_feeToken",
          "type": "address"
        },
        {
          "internalType": "uint256",
          "name": "_fee",
          "type": "uint256"
        }
      ],
      "name": "verifyData",
      "outputs": [
        {
          "internalType": "bool",
          "name": "",
          "type": "bool"
        }
      ],
      "stateMutability": "nonpayable",
      "type": "function"
    },
    {
      "inputs": [
        {
          "components": [
            {
              "internalType": "address",
              "name": "token",
              "type": "address"
            },
            {
              "internalType": "address",
              "name": "from",
              "type": "address"
            },
            {
              "internalType": "address",
              "name": "to",
              "type": "address"
            },
            {
              "internalType": "uint256",
              "name": "amount",
              "type": "uint256"
            },
            {
              "components": [
                {
                  "internalType": "uint256",
                  "name": "deadline",
                  "type": "uint256"
                },
                {
                  "components": [
                    {
                      "internalType": "uint8",
                      "name": "v",
                      "type": "uint8"
                    },
                    {
                      "internalType": "bytes32",
                      "name": "r",
                      "type": "bytes32"
                    },
                    {
                      "internalType": "bytes32",
                      "name": "s",
                      "type": "bytes32"
                    }
                  ],
                  "internalType": "struct PaymentSettlement.Signature",
                  "name": "signature",
                  "type": "tuple"
                }
              ],
              "internalType": "struct PaymentSettlement.PermitData",
              "name": "permitData",
              "type": "tuple"
            }
          ],
          "internalType": "struct PaymentSettlement.PaymentData",
          "name": "_paymentData",
          "type": "tuple"
        },
        {
          "components": [
            {
              "internalType": "uint8",
              "name": "v",
              "type": "uint8"
            },
            {
              "internalType": "bytes32",
              "name": "r",
              "type": "bytes32"
            },
            {
              "internalType": "bytes32",
              "name": "s",
              "type": "bytes32"
            }
          ],
          "internalType": "struct PaymentSettlement.Signature",
          "name": "_signature",
          "type": "tuple"
        },
        {
          "internalType": "address",
          "name": "_feeToken",
          "type": "address"
        },
        {
          "internalType": "uint256",
          "name": "_fee",
          "type": "uint256"
        }
      ],
      "name": "verifyDataReverting",
      "outputs": [],
      "stateMutability": "nonpayable",
      "type": "function"
    },
    {
      "inputs": [
        {
          "components": [
            {
              "internalType": "address",
              "name": "token",
              "type": "address"
            },
            {
              "internalType": "address",
              "name": "from",
              "type": "address"
            },
            {
              "internalType": "address",
              "name": "to",
              "type": "address"
            },
            {
              "internalType": "uint256",
              "name": "amount",
              "type": "uint256"
            },
            {
              "components": [
                {
                  "internalType": "uint256",
                  "name": "deadline",
                  "type": "uint256"
                },
                {
                  "components": [
                    {
                      "internalType": "uint8",
                      "name": "v",
                      "type": "uint8"
                    },
                    {
                      "internalType": "bytes32",
                      "name": "r",
                      "type": "bytes32"
                    },
                    {
                      "internalType": "bytes32",
                      "name": "s",
                      "type": "bytes32"
                    }
                  ],
                  "internalType": "struct PaymentSettlement.Signature",
                  "name": "signature",
                  "type": "tuple"
                }
              ],
              "internalType": "struct PaymentSettlement.PermitData",
              "name": "permitData",
              "type": "tuple"
            }
          ],
          "internalType": "struct PaymentSettlement.PaymentData",
          "name": "_paymentData",
          "type": "tuple"
        },
        {
          "components": [
            {
              "internalType": "uint8",
              "name": "v",
              "type": "uint8"
            },
            {
              "internalType": "bytes32",
              "name": "r",
              "type": "bytes32"
            },
            {
              "internalType": "bytes32",
              "name": "s",
              "type": "bytes32"
            }
          ],
          "internalType": "struct PaymentSettlement.Signature",
          "name": "_signature",
          "type": "tuple"
        }
      ],
      "name": "verifySignature",
      "outputs": [
        {
          "internalType": "bool",
          "name": "",
          "type": "bool"
        }
      ],
      "stateMutability": "view",
      "type": "function"
    },
    {
      "inputs": [],
      "name": "weth",
      "outputs": [
        {
          "internalType": "contract IWETH",
          "name": "",
          "type": "address"
        }
      ],
      "stateMutability": "view",
      "type": "function"
    },
    {
      "stateMutability": "payable",
      "type": "receive"
    }
  ],
  "transactionHash": "0xc1e2ad79c45f32342348988d193d849da50a4e7c4e4013cd985f8a429915065a",
  "args": [
    "0xE592427A0AEce92De3Edee1F18E0157C05861564",
    "0xB4FBF271143F4FBf7B91A5ded31805e42b2208d6"
  ],
  "numDeployments": 1,
  "solcInputHash": "cf84575ddfcf27c51277d51909a7d8b4",
  "bytecode": "0x6101a06040523480156200001257600080fd5b5060405162004354380380620043548339818101604052810190620000389190620004aa565b81816040518060400160405280601181526020017f5061796d656e74536574746c656d656e740000000000000000000000000000008152506040518060400160405280600181526020017f3100000000000000000000000000000000000000000000000000000000000000815250620000bc6000836200024660201b90919060201c565b6101208181525050620000da6001826200024660201b90919060201c565b6101408181525050818051906020012060e08181525050808051906020012061010081815250504660a08181525050620001196200029e60201b60201c565b608081815250503073ffffffffffffffffffffffffffffffffffffffff1660c08173ffffffffffffffffffffffffffffffffffffffff16815250505050620001766200016a620002fb60201b60201c565b6200030360201b60201c565b6000600260146101000a81548160ff0219169083151502179055508173ffffffffffffffffffffffffffffffffffffffff166101608173ffffffffffffffffffffffffffffffffffffffff16815250508073ffffffffffffffffffffffffffffffffffffffff166101808173ffffffffffffffffffffffffffffffffffffffff1681525050505081600360006101000a81548173ffffffffffffffffffffffffffffffffffffffff021916908373ffffffffffffffffffffffffffffffffffffffff160217905550505062000a55565b60006020835110156200026c576200026483620003c960201b60201c565b905062000298565b826200027e836200043660201b60201c565b60000190816200028f91906200076b565b5060ff60001b90505b92915050565b60007f8b73c3c69bb8fe3d512ecc4cf759cc79239f7b179b0ffacaa9a75d522b39400f60e051610100514630604051602001620002e0959493929190620008a3565b60405160208183030381529060405280519060200120905090565b600033905090565b6000600260009054906101000a900473ffffffffffffffffffffffffffffffffffffffff16905081600260006101000a81548173ffffffffffffffffffffffffffffffffffffffff021916908373ffffffffffffffffffffffffffffffffffffffff1602179055508173ffffffffffffffffffffffffffffffffffffffff168173ffffffffffffffffffffffffffffffffffffffff167f8be0079c531659141344cd1fd0a4f28419497f9722a3daafe3b4186f6b6457e060405160405180910390a35050565b600080829050601f815111156200041957826040517f305a27a90000000000000000000000000000000000000000000000000000000081526004016200041091906200098f565b60405180910390fd5b8051816200042790620009e5565b60001c1760001b915050919050565b6000819050919050565b600080fd5b600073ffffffffffffffffffffffffffffffffffffffff82169050919050565b6000620004728262000445565b9050919050565b620004848162000465565b81146200049057600080fd5b50565b600081519050620004a48162000479565b92915050565b60008060408385031215620004c457620004c362000440565b5b6000620004d48582860162000493565b9250506020620004e78582860162000493565b9150509250929050565b600081519050919050565b7f4e487b7100000000000000000000000000000000000000000000000000000000600052604160045260246000fd5b7f4e487b7100000000000000000000000000000000000000000000000000000000600052602260045260246000fd5b600060028204905060018216806200057357607f821691505b6020821081036200058957620005886200052b565b5b50919050565b60008190508160005260206000209050919050565b60006020601f8301049050919050565b600082821b905092915050565b600060088302620005f37fffffffffffffffffffffffffffffffffffffffffffffffffffffffffffffffff82620005b4565b620005ff8683620005b4565b95508019841693508086168417925050509392505050565b6000819050919050565b6000819050919050565b60006200064c62000646620006408462000617565b62000621565b62000617565b9050919050565b6000819050919050565b62000668836200062b565b62000680620006778262000653565b848454620005c1565b825550505050565b600090565b6200069762000688565b620006a48184846200065d565b505050565b5b81811015620006cc57620006c06000826200068d565b600181019050620006aa565b5050565b601f8211156200071b57620006e5816200058f565b620006f084620005a4565b8101602085101562000700578190505b620007186200070f85620005a4565b830182620006a9565b50505b505050565b600082821c905092915050565b6000620007406000198460080262000720565b1980831691505092915050565b60006200075b83836200072d565b9150826002028217905092915050565b6200077682620004f1565b67ffffffffffffffff811115620007925762000791620004fc565b5b6200079e82546200055a565b620007ab828285620006d0565b600060209050601f831160018114620007e35760008415620007ce578287015190505b620007da85826200074d565b8655506200084a565b601f198416620007f3866200058f565b60005b828110156200081d57848901518255600182019150602085019450602081019050620007f6565b868310156200083d578489015162000839601f8916826200072d565b8355505b6001600288020188555050505b505050505050565b6000819050919050565b620008678162000852565b82525050565b620008788162000617565b82525050565b60006200088b8262000445565b9050919050565b6200089d816200087e565b82525050565b600060a082019050620008ba60008301886200085c565b620008c960208301876200085c565b620008d860408301866200085c565b620008e760608301856200086d565b620008f6608083018462000892565b9695505050505050565b600082825260208201905092915050565b60005b838110156200093157808201518184015260208101905062000914565b60008484015250505050565b6000601f19601f8301169050919050565b60006200095b82620004f1565b62000967818562000900565b93506200097981856020860162000911565b62000984816200093d565b840191505092915050565b60006020820190508181036000830152620009ab81846200094e565b905092915050565b600081519050919050565b6000819050602082019050919050565b6000620009dc825162000852565b80915050919050565b6000620009f282620009b3565b82620009fe84620009be565b905062000a0b81620009ce565b9250602082101562000a4e5762000a497fffffffffffffffffffffffffffffffffffffffffffffffffffffffffffffffff83602003600802620005b4565b831692505b5050919050565b60805160a05160c05160e051610100516101205161014051610160516101805161387d62000ad76000396000818160fe015281816104580152818161134401526114bd01526000505060006105d8015260006105a401526000611d4201526000611d210152600061168f015260006116e50152600061170e015261387d6000f3fe6080604052600436106100f75760003560e01c80638456cb591161008a578063ab51a85d11610059578063ab51a85d1461037d578063f16156ca146103a6578063f2fde38b146103cf578063f3e9e6e8146103f85761018c565b80638456cb59146102cd57806384b0196e146102e45780638da5cb5b14610315578063a9af7e8a146103405761018c565b8063518c40fa116100c6578063518c40fa146102395780635c975abb146102625780635ec2e59f1461028d578063715018a6146102b65761018c565b8063349f0adc146101915780633f4ba83a146101ce5780633fc8cef3146101e55780634fb2e45d146102105761018c565b3661018c577f000000000000000000000000000000000000000000000000000000000000000073ffffffffffffffffffffffffffffffffffffffff163373ffffffffffffffffffffffffffffffffffffffff161461018a576040517f08c379a0000000000000000000000000000000000000000000000000000000008152600401610181906120e5565b60405180910390fd5b005b600080fd5b34801561019d57600080fd5b506101b860048036038101906101b39190612158565b610423565b6040516101c591906121b5565b60405180910390f35b3480156101da57600080fd5b506101e361043c565b005b3480156101f157600080fd5b506101fa610456565b604051610207919061224f565b60405180910390f35b34801561021c57600080fd5b50610237600480360381019061023291906122a8565b61047a565b005b34801561024557600080fd5b50610260600480360381019061025b9190612325565b61048e565b005b34801561026e57600080fd5b506102776104d2565b60405161028491906121b5565b60405180910390f35b34801561029957600080fd5b506102b460048036038101906102af9190612158565b6104e9565b005b3480156102c257600080fd5b506102cb610563565b005b3480156102d957600080fd5b506102e2610577565b005b3480156102f057600080fd5b506102f9610591565b60405161030c979695949392919061250b565b60405180910390f35b34801561032157600080fd5b5061032a610693565b604051610337919061258f565b60405180910390f35b34801561034c57600080fd5b50610367600480360381019061036291906125d6565b6106bd565b60405161037491906121b5565b60405180910390f35b34801561038957600080fd5b506103a4600480360381019061039f91906125d6565b610815565b005b3480156103b257600080fd5b506103cd60048036038101906103c891906125d6565b61085c565b005b3480156103db57600080fd5b506103f660048036038101906103f191906122a8565b610876565b005b34801561040457600080fd5b5061040d6108f9565b60405161041a9190612641565b60405180910390f35b600080610430848461091d565b90508091505092915050565b610444610aab565b61044c610b29565b610454610b72565b565b7f000000000000000000000000000000000000000000000000000000000000000081565b610482610aab565b61048b81610bd5565b50565b80600360006101000a81548173ffffffffffffffffffffffffffffffffffffffff021916908373ffffffffffffffffffffffffffffffffffffffff16021790555050565b6000600260149054906101000a900460ff16905090565b6104f1610c9b565b6104fa33610ce5565b610539576040517f08c379a0000000000000000000000000000000000000000000000000000000008152600401610530906126a8565b60405180910390fd5b6000610543610d8f565b9050600061054f610d9e565b905061055d84848484610dad565b50505050565b61056b610aab565b6105756000610bd5565b565b61057f610aab565b610587610c9b565b61058f6110bd565b565b6000606080600080600060606105d160007f000000000000000000000000000000000000000000000000000000000000000061112090919063ffffffff16565b61060560017f000000000000000000000000000000000000000000000000000000000000000061112090919063ffffffff16565b46306000801b600067ffffffffffffffff811115610626576106256126c8565b5b6040519080825280602002602001820160405280156106545781602001602082028036833780820191505090505b507f0f00000000000000000000000000000000000000000000000000000000000000959493929190965096509650965096509650965090919293949596565b6000600260009054906101000a900473ffffffffffffffffffffffffffffffffffffffff16905090565b60006106c7610c9b565b3073ffffffffffffffffffffffffffffffffffffffff1663ab51a85d868686866040518563ffffffff1660e01b8152600401610706949392919061297f565b600060405180830381600087803b15801561072057600080fd5b505af1925050508015610731575060015b6107cd5761073d6129d5565b806308c379a0036107bd5750610751612a28565b8061075c57506107bf565b60405160200161076b90612b35565b60405160208183030381529060405280519060200120816040516020016107929190612b7b565b60405160208183030381529060405280519060200120146107b757600091505061080d565b506107c8565b505b6000905061080d565b610808565b6040517f08c379a00000000000000000000000000000000000000000000000000000000081526004016107ff90612c04565b60405180910390fd5b600190505b949350505050565b61082184848484610dad565b6040517f08c379a000000000000000000000000000000000000000000000000000000000815260040161085390612c47565b60405180910390fd5b610864610c9b565b61087084848484610dad565b50505050565b61087e610aab565b600073ffffffffffffffffffffffffffffffffffffffff168173ffffffffffffffffffffffffffffffffffffffff16036108ed576040517f08c379a00000000000000000000000000000000000000000000000000000000081526004016108e490612cd9565b60405180910390fd5b6108f681610bd5565b50565b7f667a8c7f09938d651a2ceb2108bc4cb5496e13b27b76c54d6ef988cede5ae59581565b60008083600001602081019061093391906122a8565b73ffffffffffffffffffffffffffffffffffffffff16637ecebe0085602001602081019061096191906122a8565b6040518263ffffffff1660e01b815260040161097d919061258f565b602060405180830381865afa15801561099a573d6000803e3d6000fd5b505050506040513d601f19601f820116820180604052508101906109be9190612d0e565b905060007f667a8c7f09938d651a2ceb2108bc4cb5496e13b27b76c54d6ef988cede5ae5958560400160208101906109f691906122a8565b83604051602001610a0993929190612d3b565b6040516020818303038152906040528051906020012090506000610a2c826111d0565b90506000610a5682876000016020810190610a479190612d72565b886020013589604001356111ea565b90506000876020016020810190610a6d91906122a8565b73ffffffffffffffffffffffffffffffffffffffff168273ffffffffffffffffffffffffffffffffffffffff16149050809550505050505092915050565b610ab3611215565b73ffffffffffffffffffffffffffffffffffffffff16610ad1610693565b73ffffffffffffffffffffffffffffffffffffffff1614610b27576040517f08c379a0000000000000000000000000000000000000000000000000000000008152600401610b1e90612deb565b60405180910390fd5b565b610b316104d2565b610b70576040517f08c379a0000000000000000000000000000000000000000000000000000000008152600401610b6790612e57565b60405180910390fd5b565b610b7a610b29565b6000600260146101000a81548160ff0219169083151502179055507f5db9ee0a495bf2e6ff9c91a7834c1ba4fdd244a5e8aa4e537bd38aeae4b073aa610bbe611215565b604051610bcb919061258f565b60405180910390a1565b6000600260009054906101000a900473ffffffffffffffffffffffffffffffffffffffff16905081600260006101000a81548173ffffffffffffffffffffffffffffffffffffffff021916908373ffffffffffffffffffffffffffffffffffffffff1602179055508173ffffffffffffffffffffffffffffffffffffffff168173ffffffffffffffffffffffffffffffffffffffff167f8be0079c531659141344cd1fd0a4f28419497f9722a3daafe3b4186f6b6457e060405160405180910390a35050565b610ca36104d2565b15610ce3576040517f08c379a0000000000000000000000000000000000000000000000000000000008152600401610cda90612ec3565b60405180910390fd5b565b6000610144461480610cf8575061011846145b610d445773abcc9b596420a9e9172fd5938620e265a0f9df9273ffffffffffffffffffffffffffffffffffffffff168273ffffffffffffffffffffffffffffffffffffffff1614610d88565b73b16a1dbe755f992636705fdbb3a8678a657eb3ea73ffffffffffffffffffffffffffffffffffffffff168273ffffffffffffffffffffffffffffffffffffffff16145b9050919050565b6000610d9961121d565b905090565b6000610da861122c565b905090565b610db7848461091d565b610df6576040517f08c379a0000000000000000000000000000000000000000000000000000000008152600401610ded90612f55565b60405180910390fd5b836000016020810190610e0991906122a8565b73ffffffffffffffffffffffffffffffffffffffff1663d505accf856020016020810190610e3791906122a8565b3087606001358860800160000135896080016020016000016020810190610e5e9190612d72565b8a608001602001602001358b608001602001604001356040518863ffffffff1660e01b8152600401610e969796959493929190612f84565b600060405180830381600087803b158015610eb057600080fd5b505af1158015610ec4573d6000803e3d6000fd5b50505050610f1d846020016020810190610ede91906122a8565b308660600135876000016020810190610ef791906122a8565b73ffffffffffffffffffffffffffffffffffffffff16611238909392919063ffffffff16565b610f3f846000016020810190610f3391906122a8565b856060013584846112c1565b610f4761154f565b611001846000016020810190610f5d91906122a8565b856040016020810190610f7091906122a8565b866000016020810190610f8391906122a8565b73ffffffffffffffffffffffffffffffffffffffff166370a08231306040518263ffffffff1660e01b8152600401610fbb919061258f565b602060405180830381865afa158015610fd8573d6000803e3d6000fd5b505050506040513d601f19601f82011682018060405250810190610ffc9190612d0e565b611591565b83604001602081019061101491906122a8565b73ffffffffffffffffffffffffffffffffffffffff1684602001602081019061103d91906122a8565b73ffffffffffffffffffffffffffffffffffffffff1685600001602081019061106691906122a8565b73ffffffffffffffffffffffffffffffffffffffff167f0913aa4718e76655dbdbde41862a88aba8459d8721849484c97f53af3b5028e687606001356040516110af9190612ff3565b60405180910390a450505050565b6110c5610c9b565b6001600260146101000a81548160ff0219169083151502179055507f62e78cea01bee320cd4e420270b5ea74000d11b0c9f74754ebdbfc544b05a258611109611215565b604051611116919061258f565b60405180910390a1565b606060ff60001b831461113d5761113683611617565b90506111ca565b8180546111499061303d565b80601f01602080910402602001604051908101604052809291908181526020018280546111759061303d565b80156111c25780601f10611197576101008083540402835291602001916111c2565b820191906000526020600020905b8154815290600101906020018083116111a557829003601f168201915b505050505090505b92915050565b60006111e36111dd61168b565b83611742565b9050919050565b60008060006111fb87878787611783565b9150915061120881611865565b8192505050949350505050565b600033905090565b6000603436033560601c905090565b60006020360335905090565b6112bb846323b872dd60e01b8585856040516024016112599392919061306e565b604051602081830303815290604052907bffffffffffffffffffffffffffffffffffffffffffffffffffffffff19166020820180517bffffffffffffffffffffffffffffffffffffffffffffffffffffffff83818316178352505050506119cb565b50505050565b8373ffffffffffffffffffffffffffffffffffffffff168273ffffffffffffffffffffffffffffffffffffffff16031561154957600073eeeeeeeeeeeeeeeeeeeeeeeeeeeeeeeeeeeeeeee73ffffffffffffffffffffffffffffffffffffffff168373ffffffffffffffffffffffffffffffffffffffff161490508015611366577f000000000000000000000000000000000000000000000000000000000000000092505b611398611371611a93565b858773ffffffffffffffffffffffffffffffffffffffff16611abd9092919063ffffffff16565b6113a0611a93565b73ffffffffffffffffffffffffffffffffffffffff1663db3e21986040518061010001604052808873ffffffffffffffffffffffffffffffffffffffff1681526020018673ffffffffffffffffffffffffffffffffffffffff1681526020016101f462ffffff1681526020013073ffffffffffffffffffffffffffffffffffffffff168152602001428152602001858152602001878152602001600073ffffffffffffffffffffffffffffffffffffffff168152506040518263ffffffff1660e01b81526004016114719190613174565b6020604051808303816000875af1158015611490573d6000803e3d6000fd5b505050506040513d601f19601f820116820180604052508101906114b49190612d0e565b508015611547577f000000000000000000000000000000000000000000000000000000000000000073ffffffffffffffffffffffffffffffffffffffff16632e1a7d4d836040518263ffffffff1660e01b81526004016115149190612ff3565b600060405180830381600087803b15801561152e57600080fd5b505af1158015611542573d6000803e3d6000fd5b505050505b505b50505050565b61158f61155a611c0c565b611562610d9e565b61156a610d8f565b73ffffffffffffffffffffffffffffffffffffffff16611c1b9092919063ffffffff16565b565b6116128363a9059cbb60e01b84846040516024016115b0929190613190565b604051602081830303815290604052907bffffffffffffffffffffffffffffffffffffffffffffffffffffffff19166020820180517bffffffffffffffffffffffffffffffffffffffffffffffffffffffff83818316178352505050506119cb565b505050565b6060600061162483611cac565b90506000602067ffffffffffffffff811115611643576116426126c8565b5b6040519080825280601f01601f1916602001820160405280156116755781602001600182028036833780820191505090505b5090508181528360208201528092505050919050565b60007f000000000000000000000000000000000000000000000000000000000000000073ffffffffffffffffffffffffffffffffffffffff163073ffffffffffffffffffffffffffffffffffffffff1614801561170757507f000000000000000000000000000000000000000000000000000000000000000046145b15611734577f0000000000000000000000000000000000000000000000000000000000000000905061173f565b61173c611cfc565b90505b90565b60006040517f190100000000000000000000000000000000000000000000000000000000000081528360028201528260228201526042812091505092915050565b6000807f7fffffffffffffffffffffffffffffff5d576e7357a4501ddfe92f46681b20a08360001c11156117be57600060039150915061185c565b6000600187878787604051600081526020016040526040516117e394939291906131b9565b6020604051602081039080840390855afa158015611805573d6000803e3d6000fd5b505050602060405103519050600073ffffffffffffffffffffffffffffffffffffffff168173ffffffffffffffffffffffffffffffffffffffff16036118535760006001925092505061185c565b80600092509250505b94509492505050565b60006004811115611879576118786131fe565b5b81600481111561188c5761188b6131fe565b5b03156119c857600160048111156118a6576118a56131fe565b5b8160048111156118b9576118b86131fe565b5b036118f9576040517f08c379a00000000000000000000000000000000000000000000000000000000081526004016118f090613279565b60405180910390fd5b6002600481111561190d5761190c6131fe565b5b8160048111156119205761191f6131fe565b5b03611960576040517f08c379a0000000000000000000000000000000000000000000000000000000008152600401611957906132e5565b60405180910390fd5b60036004811115611974576119736131fe565b5b816004811115611987576119866131fe565b5b036119c7576040517f08c379a00000000000000000000000000000000000000000000000000000000081526004016119be90613377565b60405180910390fd5b5b50565b6000611a2d826040518060400160405280602081526020017f5361666545524332303a206c6f772d6c6576656c2063616c6c206661696c65648152508573ffffffffffffffffffffffffffffffffffffffff16611d929092919063ffffffff16565b9050600081511480611a4f575080806020019051810190611a4e91906133c3565b5b611a8e576040517f08c379a0000000000000000000000000000000000000000000000000000000008152600401611a8590613462565b60405180910390fd5b505050565b6000600360009054906101000a900473ffffffffffffffffffffffffffffffffffffffff16905090565b6000811480611b47575060008373ffffffffffffffffffffffffffffffffffffffff1663dd62ed3e30856040518363ffffffff1660e01b8152600401611b04929190613482565b602060405180830381865afa158015611b21573d6000803e3d6000fd5b505050506040513d601f19601f82011682018060405250810190611b459190612d0e565b145b611b86576040517f08c379a0000000000000000000000000000000000000000000000000000000008152600401611b7d9061351d565b60405180910390fd5b611c078363095ea7b360e01b8484604051602401611ba5929190613190565b604051602081830303815290604052907bffffffffffffffffffffffffffffffffffffffffffffffffffffffff19166020820180517bffffffffffffffffffffffffffffffffffffffffffffffffffffffff83818316178352505050506119cb565b505050565b6000611c16611daa565b905090565b6000810315611ca75773eeeeeeeeeeeeeeeeeeeeeeeeeeeeeeeeeeeeeeee73ffffffffffffffffffffffffffffffffffffffff168373ffffffffffffffffffffffffffffffffffffffff1614611c9b57611c9682828573ffffffffffffffffffffffffffffffffffffffff166115919092919063ffffffff16565b611ca6565b611ca58282611db9565b5b5b505050565b60008060ff8360001c169050601f811115611cf3576040517fb3512b0c00000000000000000000000000000000000000000000000000000000815260040160405180910390fd5b80915050919050565b60007f8b73c3c69bb8fe3d512ecc4cf759cc79239f7b179b0ffacaa9a75d522b39400f7f00000000000000000000000000000000000000000000000000000000000000007f00000000000000000000000000000000000000000000000000000000000000004630604051602001611d7795949392919061353d565b60405160208183030381529060405280519060200120905090565b6060611da18484600085611ead565b90509392505050565b6000604836033560601c905090565b80471015611dfc576040517f08c379a0000000000000000000000000000000000000000000000000000000008152600401611df3906135dc565b60405180910390fd5b60008273ffffffffffffffffffffffffffffffffffffffff1682604051611e229061362d565b60006040518083038185875af1925050503d8060008114611e5f576040519150601f19603f3d011682016040523d82523d6000602084013e611e64565b606091505b5050905080611ea8576040517f08c379a0000000000000000000000000000000000000000000000000000000008152600401611e9f906136b4565b60405180910390fd5b505050565b606082471015611ef2576040517f08c379a0000000000000000000000000000000000000000000000000000000008152600401611ee990613746565b60405180910390fd5b6000808673ffffffffffffffffffffffffffffffffffffffff168587604051611f1b91906137a2565b60006040518083038185875af1925050503d8060008114611f58576040519150601f19603f3d011682016040523d82523d6000602084013e611f5d565b606091505b5091509150611f6e87838387611f7a565b92505050949350505050565b60608315611fdc576000835103611fd457611f9485611fef565b611fd3576040517f08c379a0000000000000000000000000000000000000000000000000000000008152600401611fca90613805565b60405180910390fd5b5b829050611fe7565b611fe68383612012565b5b949350505050565b6000808273ffffffffffffffffffffffffffffffffffffffff163b119050919050565b6000825111156120255781518083602001fd5b806040517f08c379a00000000000000000000000000000000000000000000000000000000081526004016120599190613825565b60405180910390fd5b600082825260208201905092915050565b7f5061796d656e74536574746c656d656e743a20696e76616c6964206d73672e7360008201527f656e646572000000000000000000000000000000000000000000000000000000602082015250565b60006120cf602583612062565b91506120da82612073565b604082019050919050565b600060208201905081810360008301526120fe816120c2565b9050919050565b6000604051905090565b600080fd5b600080fd5b600061010082840312156121305761212f612114565b5b81905092915050565b60006060828403121561214f5761214e612114565b5b81905092915050565b60008061016083850312156121705761216f61210f565b5b600061217e85828601612119565b92505061010061219085828601612139565b9150509250929050565b60008115159050919050565b6121af8161219a565b82525050565b60006020820190506121ca60008301846121a6565b92915050565b600073ffffffffffffffffffffffffffffffffffffffff82169050919050565b6000819050919050565b600061221561221061220b846121d0565b6121f0565b6121d0565b9050919050565b6000612227826121fa565b9050919050565b60006122398261221c565b9050919050565b6122498161222e565b82525050565b60006020820190506122646000830184612240565b92915050565b6000612275826121d0565b9050919050565b6122858161226a565b811461229057600080fd5b50565b6000813590506122a28161227c565b92915050565b6000602082840312156122be576122bd61210f565b5b60006122cc84828501612293565b91505092915050565b60006122e0826121d0565b9050919050565b60006122f2826122d5565b9050919050565b612302816122e7565b811461230d57600080fd5b50565b60008135905061231f816122f9565b92915050565b60006020828403121561233b5761233a61210f565b5b600061234984828501612310565b91505092915050565b60007fff0000000000000000000000000000000000000000000000000000000000000082169050919050565b61238781612352565b82525050565b600081519050919050565b60005b838110156123b657808201518184015260208101905061239b565b60008484015250505050565b6000601f19601f8301169050919050565b60006123de8261238d565b6123e88185612062565b93506123f8818560208601612398565b612401816123c2565b840191505092915050565b6000819050919050565b61241f8161240c565b82525050565b61242e8161226a565b82525050565b6000819050919050565b61244781612434565b82525050565b600081519050919050565b600082825260208201905092915050565b6000819050602082019050919050565b6124828161240c565b82525050565b60006124948383612479565b60208301905092915050565b6000602082019050919050565b60006124b88261244d565b6124c28185612458565b93506124cd83612469565b8060005b838110156124fe5781516124e58882612488565b97506124f0836124a0565b9250506001810190506124d1565b5085935050505092915050565b600060e082019050612520600083018a61237e565b818103602083015261253281896123d3565b9050818103604083015261254681886123d3565b90506125556060830187612416565b6125626080830186612425565b61256f60a083018561243e565b81810360c083015261258181846124ad565b905098975050505050505050565b60006020820190506125a46000830184612425565b92915050565b6125b38161240c565b81146125be57600080fd5b50565b6000813590506125d0816125aa565b92915050565b6000806000806101a085870312156125f1576125f061210f565b5b60006125ff87828801612119565b94505061010061261187828801612139565b93505061016061262387828801612293565b925050610180612635878288016125c1565b91505092959194509250565b6000602082019050612656600083018461243e565b92915050565b7f6f6e6c7947656c61746f52656c61790000000000000000000000000000000000600082015250565b6000612692600f83612062565b915061269d8261265c565b602082019050919050565b600060208201905081810360008301526126c181612685565b9050919050565b7f4e487b7100000000000000000000000000000000000000000000000000000000600052604160045260246000fd5b60006127066020840184612293565b905092915050565b6127178161226a565b82525050565b600061272c60208401846125c1565b905092915050565b600082905092915050565b600082905092915050565b600060ff82169050919050565b6127608161274a565b811461276b57600080fd5b50565b60008135905061277d81612757565b92915050565b6000612792602084018461276e565b905092915050565b6127a38161274a565b82525050565b6127b281612434565b81146127bd57600080fd5b50565b6000813590506127cf816127a9565b92915050565b60006127e460208401846127c0565b905092915050565b6127f581612434565b82525050565b6060820161280c6000830183612783565b612819600085018261279a565b5061282760208301836127d5565b61283460208501826127ec565b5061284260408301836127d5565b61284f60408501826127ec565b50505050565b60808201612866600083018361271d565b6128736000850182612479565b50612881602083018361273f565b61288e60208501826127fb565b50505050565b61010082016128a660008301836126f7565b6128b3600085018261270e565b506128c160208301836126f7565b6128ce602085018261270e565b506128dc60408301836126f7565b6128e9604085018261270e565b506128f7606083018361271d565b6129046060850182612479565b506129126080830183612734565b61291f6080850182612855565b50505050565b606082016129366000830183612783565b612943600085018261279a565b5061295160208301836127d5565b61295e60208501826127ec565b5061296c60408301836127d5565b61297960408501826127ec565b50505050565b60006101a0820190506129956000830187612894565b6129a3610100830186612925565b6129b1610160830185612425565b6129bf610180830184612416565b95945050505050565b60008160e01c9050919050565b600060033d11156129f45760046000803e6129f16000516129c8565b90505b90565b612a00826123c2565b810181811067ffffffffffffffff82111715612a1f57612a1e6126c8565b5b80604052505050565b600060443d10612ab557612a3a612105565b60043d036004823e80513d602482011167ffffffffffffffff82111715612a62575050612ab5565b808201805167ffffffffffffffff811115612a805750505050612ab5565b80602083010160043d038501811115612a9d575050505050612ab5565b612aac826020018501866129f7565b82955050505050505b90565b600081905092915050565b7f5061796d656e74536574746c656d656e743a20766572696669636174696f6e2060008201527f636f6d706c657465000000000000000000000000000000000000000000000000602082015250565b6000612b1f602883612ab8565b9150612b2a82612ac3565b602882019050919050565b6000612b4082612b12565b9150819050919050565b6000612b558261238d565b612b5f8185612ab8565b9350612b6f818560208601612398565b80840191505092915050565b6000612b878284612b4a565b915081905092915050565b7f5061796d656e74536574746c656d656e743a207665726966794461746152657660008201527f657274696e6720646964206e6f74207265766572740000000000000000000000602082015250565b6000612bee603583612062565b9150612bf982612b92565b604082019050919050565b60006020820190508181036000830152612c1d81612be1565b9050919050565b6000612c31602883612062565b9150612c3c82612ac3565b604082019050919050565b60006020820190508181036000830152612c6081612c24565b9050919050565b7f4f776e61626c653a206e6577206f776e657220697320746865207a65726f206160008201527f6464726573730000000000000000000000000000000000000000000000000000602082015250565b6000612cc3602683612062565b9150612cce82612c67565b604082019050919050565b60006020820190508181036000830152612cf281612cb6565b9050919050565b600081519050612d08816125aa565b92915050565b600060208284031215612d2457612d2361210f565b5b6000612d3284828501612cf9565b91505092915050565b6000606082019050612d50600083018661243e565b612d5d6020830185612425565b612d6a6040830184612416565b949350505050565b600060208284031215612d8857612d8761210f565b5b6000612d968482850161276e565b91505092915050565b7f4f776e61626c653a2063616c6c6572206973206e6f7420746865206f776e6572600082015250565b6000612dd5602083612062565b9150612de082612d9f565b602082019050919050565b60006020820190508181036000830152612e0481612dc8565b9050919050565b7f5061757361626c653a206e6f7420706175736564000000000000000000000000600082015250565b6000612e41601483612062565b9150612e4c82612e0b565b602082019050919050565b60006020820190508181036000830152612e7081612e34565b9050919050565b7f5061757361626c653a2070617573656400000000000000000000000000000000600082015250565b6000612ead601083612062565b9150612eb882612e77565b602082019050919050565b60006020820190508181036000830152612edc81612ea0565b9050919050565b7f5061796d656e74536574746c656d656e743a20696e76616c6964207369676e6160008201527f7475726500000000000000000000000000000000000000000000000000000000602082015250565b6000612f3f602483612062565b9150612f4a82612ee3565b604082019050919050565b60006020820190508181036000830152612f6e81612f32565b9050919050565b612f7e8161274a565b82525050565b600060e082019050612f99600083018a612425565b612fa66020830189612425565b612fb36040830188612416565b612fc06060830187612416565b612fcd6080830186612f75565b612fda60a083018561243e565b612fe760c083018461243e565b98975050505050505050565b60006020820190506130086000830184612416565b92915050565b7f4e487b7100000000000000000000000000000000000000000000000000000000600052602260045260246000fd5b6000600282049050600182168061305557607f821691505b6020821081036130685761306761300e565b5b50919050565b60006060820190506130836000830186612425565b6130906020830185612425565b61309d6040830184612416565b949350505050565b600062ffffff82169050919050565b6130bd816130a5565b82525050565b6130cc816121d0565b82525050565b610100820160008201516130e9600085018261270e565b5060208201516130fc602085018261270e565b50604082015161310f60408501826130b4565b506060820151613122606085018261270e565b5060808201516131356080850182612479565b5060a082015161314860a0850182612479565b5060c082015161315b60c0850182612479565b5060e082015161316e60e08501826130c3565b50505050565b60006101008201905061318a60008301846130d2565b92915050565b60006040820190506131a56000830185612425565b6131b26020830184612416565b9392505050565b60006080820190506131ce600083018761243e565b6131db6020830186612f75565b6131e8604083018561243e565b6131f5606083018461243e565b95945050505050565b7f4e487b7100000000000000000000000000000000000000000000000000000000600052602160045260246000fd5b7f45434453413a20696e76616c6964207369676e61747572650000000000000000600082015250565b6000613263601883612062565b915061326e8261322d565b602082019050919050565b6000602082019050818103600083015261329281613256565b9050919050565b7f45434453413a20696e76616c6964207369676e6174757265206c656e67746800600082015250565b60006132cf601f83612062565b91506132da82613299565b602082019050919050565b600060208201905081810360008301526132fe816132c2565b9050919050565b7f45434453413a20696e76616c6964207369676e6174757265202773272076616c60008201527f7565000000000000000000000000000000000000000000000000000000000000602082015250565b6000613361602283612062565b915061336c82613305565b604082019050919050565b6000602082019050818103600083015261339081613354565b9050919050565b6133a08161219a565b81146133ab57600080fd5b50565b6000815190506133bd81613397565b92915050565b6000602082840312156133d9576133d861210f565b5b60006133e7848285016133ae565b91505092915050565b7f5361666545524332303a204552433230206f7065726174696f6e20646964206e60008201527f6f74207375636365656400000000000000000000000000000000000000000000602082015250565b600061344c602a83612062565b9150613457826133f0565b604082019050919050565b6000602082019050818103600083015261347b8161343f565b9050919050565b60006040820190506134976000830185612425565b6134a46020830184612425565b9392505050565b7f5361666545524332303a20617070726f76652066726f6d206e6f6e2d7a65726f60008201527f20746f206e6f6e2d7a65726f20616c6c6f77616e636500000000000000000000602082015250565b6000613507603683612062565b9150613512826134ab565b604082019050919050565b60006020820190508181036000830152613536816134fa565b9050919050565b600060a082019050613552600083018861243e565b61355f602083018761243e565b61356c604083018661243e565b6135796060830185612416565b6135866080830184612425565b9695505050505050565b7f416464726573733a20696e73756666696369656e742062616c616e6365000000600082015250565b60006135c6601d83612062565b91506135d182613590565b602082019050919050565b600060208201905081810360008301526135f5816135b9565b9050919050565b600081905092915050565b50565b60006136176000836135fc565b915061362282613607565b600082019050919050565b60006136388261360a565b9150819050919050565b7f416464726573733a20756e61626c6520746f2073656e642076616c75652c207260008201527f6563697069656e74206d61792068617665207265766572746564000000000000602082015250565b600061369e603a83612062565b91506136a982613642565b604082019050919050565b600060208201905081810360008301526136cd81613691565b9050919050565b7f416464726573733a20696e73756666696369656e742062616c616e636520666f60008201527f722063616c6c0000000000000000000000000000000000000000000000000000602082015250565b6000613730602683612062565b915061373b826136d4565b604082019050919050565b6000602082019050818103600083015261375f81613723565b9050919050565b600081519050919050565b600061377c82613766565b61378681856135fc565b9350613796818560208601612398565b80840191505092915050565b60006137ae8284613771565b915081905092915050565b7f416464726573733a2063616c6c20746f206e6f6e2d636f6e7472616374000000600082015250565b60006137ef601d83612062565b91506137fa826137b9565b602082019050919050565b6000602082019050818103600083015261381e816137e2565b9050919050565b6000602082019050818103600083015261383f81846123d3565b90509291505056fea26469706673582212207a322743b395324c26321a22731ceb5e1c3d42b95d86188a84f665dbd2e36c2264736f6c63430008140033",
  "devdoc": {
    "events": {
      "EIP712DomainChanged()": {
        "details": "MAY be emitted to signal that the domain could have changed."
      },
      "Paused(address)": {
        "details": "Emitted when the pause is triggered by `account`."
      },
      "Unpaused(address)": {
        "details": "Emitted when the pause is lifted by `account`."
      }
    },
    "kind": "dev",
    "methods": {
      "eip712Domain()": {
        "details": "See {EIP-5267}. _Available since v4.9._"
      },
      "owner()": {
        "details": "Returns the address of the current owner."
      },
      "paused()": {
        "details": "Returns true if the contract is paused, and false otherwise."
      },
      "renounceOwnership()": {
        "details": "Leaves the contract without owner. It will not be possible to call `onlyOwner` functions. Can only be called by the current owner. NOTE: Renouncing ownership will leave the contract without an owner, thereby disabling any functionality that is only available to the owner."
      },
      "transferOwnership(address)": {
        "details": "Transfers ownership of the contract to a new account (`newOwner`). Can only be called by the current owner."
      }
    },
    "version": 1
  },
  "userdoc": {
    "kind": "user",
    "methods": {},
    "version": 1
  },
  "storageLayout": {
    "storage": [
      {
        "astId": 2397,
        "contract": "contracts/test/PaymentSettlementTestHarness.sol:PaymentSettlementTestHarness",
        "label": "_nameFallback",
        "offset": 0,
        "slot": "0",
        "type": "t_string_storage"
      },
      {
        "astId": 2399,
        "contract": "contracts/test/PaymentSettlementTestHarness.sol:PaymentSettlementTestHarness",
        "label": "_versionFallback",
        "offset": 0,
        "slot": "1",
        "type": "t_string_storage"
      },
      {
        "astId": 363,
        "contract": "contracts/test/PaymentSettlementTestHarness.sol:PaymentSettlementTestHarness",
        "label": "_owner",
        "offset": 0,
        "slot": "2",
        "type": "t_address"
      },
      {
        "astId": 511,
        "contract": "contracts/test/PaymentSettlementTestHarness.sol:PaymentSettlementTestHarness",
        "label": "_paused",
        "offset": 20,
        "slot": "2",
        "type": "t_bool"
      },
      {
        "astId": 4434,
        "contract": "contracts/test/PaymentSettlementTestHarness.sol:PaymentSettlementTestHarness",
        "label": "uniV3RouterOverride",
        "offset": 0,
        "slot": "3",
        "type": "t_contract(IUniV3Router)4318"
      }
    ],
    "types": {
      "t_address": {
        "encoding": "inplace",
        "label": "address",
        "numberOfBytes": "20"
      },
      "t_bool": {
        "encoding": "inplace",
        "label": "bool",
        "numberOfBytes": "1"
      },
      "t_contract(IUniV3Router)4318": {
        "encoding": "inplace",
        "label": "contract IUniV3Router",
        "numberOfBytes": "20"
      },
      "t_string_storage": {
        "encoding": "bytes",
        "label": "string",
        "numberOfBytes": "32"
      }
    }
  }
}